:100000000C9451010C9477010C9477010C947701B6
:100010000C9477010C9477010C9477010C94770180
:100020000C9477010C9477010C9477010C94E609F9
:100030000C9477010C94C4090C9477010C9477010B
:100040000C9477010C9477010C9477010C94770150
:100050000C947701A60C3C7EE7C3C3C3C3C3C3E7BC
:100060007E3C183878F81818181818183C7E3C3E52
:10007000E7E7C70E1C1C3870FFFF3C7EEFC70E1C65
:100080001C0EC7E77E3C1818307066E6FFFF0606B8
:100090000606FFFFC0C0F07C1E0EC7E77E3C183C82
:1000A0007EE7C3C0FCF6C7E77E3C7EFFE7C60E1CBA
:1000B0001C18383070603C7EC3C3663C3C66C3C3CA
:1000C0007E3C3C7EC3C3673F1F03C3E77E3C00000A
:1000D00018180000001818000000000000000000C0
:1000E000002F00000007000700147F147F14242A4B
:1000F0007F2A12C4C81026463649552250000503EF
:100100000000001C2241000041221C0014083E088F
:100110001408083E0808000050300010101010109D
:10012000006060000020100804023E5149453E0076
:10013000427F400042615149462141454B311814EC
:10014000127F1027454545393C4A4949300171091C
:1001500005033649494936064949291E0036360005
:100160000000563600000814224100141414141420
:1001700000412214080201510906324959513E7EBC
:100180001111117E7F494949363E414141227F414B
:1001900041221C7F494949417F090909013E4149E2
:1001A000497A7F0808087F00417F41002040413F95
:1001B000017F081422417F404040407F020C027FB3
:1001C0007F0408107F3E4141413E7F090909063EF8
:1001D0004151215E7F0919294646494949310101AA
:1001E0007F01013F4040403F1F2040201F3F4038DB
:1001F000403F6314081463070870080761514945BC
:1002000043007F414100552A552A550041417F0056
:10021000040201020440404040400001020400206A
:10022000545454787F484444383844444420384433
:1002300044487F3854545418087E0901020C525225
:10024000523E7F0804047800447D40002040443D35
:10025000007F1028440000417F40007C041804788F
:100260007C0804047838444444387C141414080886
:100270001414187C7C080404084854545420043F87
:100280004440203C4040207C1C2040201C3C40300E
:10029000403C44281028440C5050503C4464544C7A
:1002A000440011241FBECFE5D8E0DEBFCDBF11E072
:1002B000A0E6B0E0ECE0FAE202C005900D92AA31AF
:1002C000B107D9F715E0AAE1B1E001C01D92A0394C
:1002D000B107E1F710E0C6E5D0E004C02297FE01C7
:1002E0000E94E014C435D107C9F70C94310C0C946A
:1002F0000000481B40937605442359F047FF05C092
:100300004195409376058FEF01C081E0809373059E
:1003100002C040937305261B20937805222359F0D1
:1003200027FF05C02195209378058FEF01C081E05C
:100330008093790502C0209379058091780590918A
:100340007605981744F4809376059093780581E0BC
:100350008093740502C01092740520917605209355
:10036000750580917805992787FD9095880F991FCD
:1003700080937805821B80937705822F992787FDCC
:100380009095880F991F809376050895DC01FB01F5
:100390001C9210828091750587FF03C08FEF9FEF3D
:1003A00008958091770587FD12C080917405882398
:1003B00021F0809173058C9303C08091790580832F
:1003C0008091770590917605891B809377058091C0
:1003D0007405882321F080917905808303C0809182
:1003E00073058C938091770590917805890F8093A0
:1003F000770580917505815080937505992787FD54
:100400009095809590958827990F881F9927019737
:100410000895CF92DF92EF92FF920F931F93CF93A5
:10042000DF93C82ED62E142FE22E842F80528C35C7
:1004300008F01CE500E0FF24C0E0D0E085E01802F1
:10044000F0011124EC0FFD1FE65CFF4F849199270A
:10045000002E02C0959587950A94E2F780FF09C0A7
:100460008D2D801B4E2D682F685F8C2D8F0D0E9467
:10047000C706F394219684E08F1500F70F5F0830CC
:10048000D0F2DF91CF911F910F91FF90EF90DF900D
:10049000CF900895BF92CF92DF92EF92FF920F9389
:1004A0001F93CF93DF93B82EC62ED42EE22E00E0FA
:1004B0001B2D195FC0E0D0E087E0F82E8CE09D2D69
:1004C0009802F0011124E00FF11DEA5EF1408491E1
:1004D00099270C2E02C0959587950A94E2F780FF24
:1004E00008C08C2D801B4E2D682F645F812F0E94C9
:1004F000C706FA9421961150F7FEE0CF0F5F0C303B
:10050000B8F2DF91CF911F910F91FF90EF90DF90A4
:10051000CF90BF900895FF920F931F93CF93DF93D7
:10052000182FF62EEA01022F8881882359F089912D
:10053000202F482F6F2D812F0E9409021A5F88817A
:100540008823A9F7DF91CF911F910F91FF90089514
:10055000FF920F931F93CF93DF93182FF62EEA018C
:10056000022F8881882359F08991202F482F6F2DE1
:10057000812F0E944A02175F88818823A9F7DF91A3
:10058000CF911F910F91FF900895CF92DF92EF923C
:10059000FF920F93CF93DF93CDB7DEB722970FB6BD
:1005A000F894DEBF0FBECDBF6C017B018C2D0E9485
:1005B00079010CC08A81992787FD9095C80ED91EB4
:1005C0008981992787FD9095E80EF91E402F6E2DA1
:1005D0008C2D0E94C706BE016F5F7F4FCE01029631
:1005E0000E94C6018F3F31F722960FB6F894DEBF06
:1005F0000FBECDBFDF91CF910F91FF90EF90DF90B5
:10060000CF9008950E94070708950E943306089529
:10061000982FF894809184059823892780938405E6
:100620007894892F99270895982FF89480918305BD
:1006300098238927809383057894892F9927089593
:10064000982FF89480918505809589230E9408034E
:10065000992708950E9414030E940803992708957A
:10066000F8941092840510928505789408958F98D7
:10067000979A8E98969A8D98959A8C98949A8B9A28
:100680008A9A899A889A08958B98939A8A98929AC6
:100690008998919A8898909A99278130910579F054
:1006A000823091051CF4892B39F008958230910530
:1006B00049F0039751F008958B9A939808958A9A78
:1006C00092980895899A91980895889A9098089593
:1006D0009F92AF92BF92CF92DF92EF92FF920F93D1
:1006E0001F93CF93DF93C0E0D0E099245E016E01A9
:1006F0007E018E01892D0E94440387990AC081E002
:1007000090E0002E02C0880F991F0A94E2F7C82BD0
:10071000D92B86990AC082E090E00E2C02C0880F87
:10072000991F0A94E2F7C82BD92B85990AC084E057
:1007300090E00C2C02C0880F991F0A94E2F7C82B96
:10074000D92B84990AC088E090E00A2C02C0880F57
:10075000991F0A94E2F7C82BD92B93940C5F1F4F73
:1007600084E090E0E80EF91EC80ED91EA80EB91E4E
:1007700093E0991508F0BECFCE01DF91CF911F9184
:100780000F91FF90EF90DF90CF90BF90AF909F9030
:10079000089517BA8FEF88BB0895EF92FF921F93C9
:1007A000CF93DF9320E44FE768E380E00E942704C3
:1007B0002FEF40912A0150912B0167E384E00E94C2
:1007C0008B02C0E0D0E013E09AE1E92E91E0F92E2F
:1007D000D701ED91FD917D018081882331F020E0EA
:1007E000AF016C2F822F0E94840511502E9617FFA7
:1007F000EFCFC0E0D0E013E082E2E82E81E0F82EF7
:10080000D701ED91FD917D018081882331F020E0B9
:10081000AF016C2F8EE50E94840511502E9617FFB4
:10082000EFCFDF91CF911F91FF90EF9008957093DC
:100830002B0160932A0127E0AAE1B1E0FC0181913C
:1008400091918D939D93215027FFF9CF0895BF92E9
:10085000CF92DF92EF92FF920F931F93CF93B82E18
:10086000862F142FC62F7727C82EDD24C7FCD094DF
:10087000E22EFF24C6018E0D9F1D68177907A4F490
:100880008B2D992787FD909501E09B01AC01410FCD
:10089000511D0E94C502C00F6C2F7727C6018E0D17
:1008A0009F1D6817790764F3CF911F910F91FF90F7
:1008B000EF90DF90CF90BF9008952F923F925F927C
:1008C0006F927F928F929F92AF92BF92CF92DF9260
:1008D000EF92FF920F931F93CF93DF93CDB7DEB7C5
:1008E00024970FB6F894DEBF0FBECDBF562EB42EA0
:1008F00048013701262E332427FC309433273A83CE
:1009000029836901C20CD31CE82FFF27E7FDF0956E
:10091000FC83EB8301E09601AF01B101CF010E949E
:10092000C502AB2CBB24EB80FC80EA0CFB1C9601BF
:10093000A701B6018B819C810E94C5029101A7018C
:10094000B601C7010E94C50291014B815C81B101D2
:10095000C7010E94C502C501AA2797FDA095BA2F1D
:10096000BC01CD010E940B147B018C01C401AA279C
:1009700097FDA095BA2FBC01CD010E940B14DC019C
:10098000CB019C01AD01C801B7010E94A8137B01F6
:100990008C01C301AA2797FDA095BA2FBC01CD01F8
:1009A0000E940B14DC01CB019C01AD01C801B70111
:1009B0000E946314DC01CB01BC01CD010E94EE1347
:1009C000DC01CB01182F5394652D77276C157D051D
:1009D000A4F401E09B014B815C81410F511D8B818F
:1009E0009C810E94C502500E652D772789819A81CE
:1009F000820D931D6817790764F324960FB6F89457
:100A0000DEBF0FBECDBFDF91CF911F910F91FF9041
:100A1000EF90DF90CF90BF90AF909F908F907F909E
:100A20006F905F903F902F9008959F92AF92BF92EA
:100A3000CF92DF92EF92FF920F931F93CF93DF93AA
:100A4000CDB7DEB72A970FB6F894DEBF0FBECDBF85
:100A5000982EA62EB42E68018091800599270097C4
:100A600019F00197C9F13EC07801890128E0892D6C
:100A70000E945D04DF92CF9280E690E09F938F9377
:100A80008E010F5F1F4F1F930F930E94530FAA9465
:100A9000B6949B0CF80101900020E9F73197E01B18
:100AA000F10BCF01880F991F880F991F8E0F9F1F81
:100AB0008E0F9F1F969587952FEFA8016A2D981A84
:100AC000892D0E948B028DB79EB706960FB6F894BB
:100AD0009EBF0FBE8DBF06C0780189012CE0892D15
:100AE0000E945D042A960FB6F894DEBF0FBECDBFFC
:100AF000DF91CF911F910F91FF90EF90DF90CF90FA
:100B0000BF90AF909F9008954F925F927F928F9287
:100B10009F92AF92BF92CF92DF92EF92FF920F938C
:100B20001F93CF93DF93782E162F2A01862E9924B8
:100B300087FC9094C72DDD27C7FDD095222371F146
:100B4000F1E2EF2EF12CEC0EFD1E5E010894A11CCB
:100B5000B11C01E09401A701B401C5010E94C502C6
:100B6000EBE0CE2ED12CC80CD91C9601A701B40104
:100B7000C7010E94C5029601A501B601C7010E94E6
:100B8000C5029401A501B601C5010E94C502100F5E
:100B9000202FA201612F872D8D5F53C0640108941F
:100BA000C11CD11C70E2A72EB12CAC0EBD1E01E001
:100BB0009601A501B601CE010E94C5026CE0E62EA9
:100BC000F12CE80CF91C9701A501B601C5010E94A2
:100BD000C5029701AE01B701C5010E94C502960189
:100BE000AE01B701CE010E94C5027E010894E11C4E
:100BF000F11C9401A701B601C7010E94C50294012E
:100C0000A501B401C7010E94C5025BE0C52ED12C2D
:100C1000C80CD91C41E2E42EF12CEC0EFD1E96010D
:100C2000A701B401C7010E94C5029601A501B40144
:100C3000C7010E94C5021E5F202FA201612F872DD0
:100C40008E5F0E948B02DF91CF911F910F91FF90D9
:100C5000EF90DF90CF90BF90AF909F908F907F905C
:100C60005F904F9008958CE291E00E948506089570
:100C700090E0811190E86BBB979882B3892B8064D8
:100C800082BB9698969A0895682F81E00E94380654
:100C90000895682F80E00E943806089580EF0E9432
:100CA000440680E00E94440680E20E94440680E3FD
:100CB0000E94440680E40E94440680E50E944406A7
:100CC00081E60E94440680E70E94440680EF0E946D
:100CD000440681E80E94440682E90E94440683EAB1
:100CE0000E94440682EB0E9444068EED0E94440658
:100CF00080EE0E94440681EF0E94440680EE0E942E
:100D0000440680EF0E9444060895FC0180E8808339
:100D100080E4818381E0828313828483108615823C
:100D20008FEF8ABB80EE81BB0E944E0608950F9321
:100D30001F93CF93DF9300E0802F8F7080620E941B
:100D40004406802F82958F7080630E94440680E065
:100D50000E944406C0E0D0E01FE0E02FFF2784E0BF
:100D6000EE0FFF1F8A95E1F7EC0FFD1FEB5CFE4FC6
:100D700080810E9449061150219617FFEECF0F5F28
:100D80000034D0F2DF91CF911F910F910895982FE9
:100D900087FD3CC06034D0F5869586958695A62F54
:100DA000BB27682F7727FD0124E0EE0FFF1F2A9550
:100DB000E1F7E60FF71FEB5CFE4FE081977027E04D
:100DC00030E0291B310981E090E002C0880F991FB3
:100DD0002A95E2F7552747FD50954115510521F019
:100DE0004130510521F005C080958E2303C08E2B24
:100DF00001C08E27E81751F094E0AA0FBB1F9A9507
:100E0000E1F7A60FB71FAB5CBE4F8C9308951F93FD
:100E1000CF9310E0C0E040E06C2F812F0E94C70606
:100E2000CF5FC034C0F31F5F17FFF4CFCF911F9186
:100E30000895282FE62FFF27822F86958695869581
:100E400034E0EE0FFF1F3A95E1F7E80FF11DEB5C80
:100E5000FE4F277087E090E0821B910921E030E08F
:100E600002C0220F331F8A95E2F78081822B9927D7
:100E70000895882311F0959A0895959808952F92D2
:100E80003F924F925F926F927F928F929F92BF920A
:100E9000CF92DF92EF92FF920F931F93CF93DF9346
:100EA000CDB7DEB762970FB6F894DEBF0FBECDBFE9
:100EB0001C013B014A016901290188E0EEE6F0E0EE
:100EC000A1E0B0E0AC0FBD1F01900D928A95E1F753
:100ED0000E9407070E9430035CE0E52EF12C47E2F8
:100EE000B42E00E0970140E550E0B70180E090E0CB
:100EF0000E94C502BA940894E11CF11CB7FEF1CF20
:100F000001E02CE030E040E550E0B90180E090E005
:100F10000E94C50224E330E040E550E0B90180E0E2
:100F200090E00E94C50224E330E040E050E06CE035
:100F300070E0CA010E94C50224E330E040E550E0C1
:100F40006CE070E0CA010E94C5022AE04EE46AE249
:100F5000802F0E9427042FEFA1016AE282E00E9405
:100F60008B02EE24FF2433E0B32E01E010E00C0FDF
:100F70001D1F0A5F1F4FD801ED91FC9102501040D8
:100F80008081882331F020E0AF016E2D8EE50E9434
:100F90008405BA9420E130E0E20EF31EB7FEEBCFF9
:100FA000DF92CF9286E790E09F938F938E01075F49
:100FB0001F4F1F930F930E94530FF80101900020C1
:100FC000E9F73197E01BF10BCF01880F991F880FCC
:100FD000991F8E0F9F1F982F9E0F969521E0A801B5
:100FE00066E188E2891B0E948B020E94970680E1DD
:100FF0000E940803ADB7BEB716960FB6F894BEBFF1
:101000000FBEADBF882311F096012BC080E80E946F
:101010000803882311F0920124C080E40E94080391
:10102000182F80E40E941403182B41F0C814D9042F
:1010300024F40894C11CD11C01C0630180E20E9409
:101040000803182F80E20E941403182B09F444CFE0
:101050006C147D0424F40894C108D1083DCF6401C8
:101060003BCFC90162960FB6F894DEBF0FBECDBF6D
:10107000DF91CF911F910F91FF90EF90DF90CF9074
:10108000BF909F908F907F906F905F904F903F9018
:101090002F9008956F927F928F929F92AF92BF92FE
:1010A000DF92EF92FF920F931F93CF93DF93CDB711
:1010B000DEB76D970FB6F894DEBF0FBECDBF5B01F4
:1010C0004A01390188E0A9E8B0E0FE013196282FF5
:1010D0000D9001922A95E1F7A1E9B0E0FE01399661
:1010E0000D9001928A95E1F7DB018C91898BFA01D1
:1010F00080818A8BD3018C918B8B0E940707EE2411
:10110000FF24E3E0DE2E06E010E0FE01E00FF11F19
:101110000180F281E02D8081882331F020E0AF0151
:101120006E2D822F0E948405DA9402501040E0E177
:10113000F0E0EE0EFF1ED7FEE8CFEE24FF2473E0B2
:10114000D72E8E01015F1F4FD801ED91FC91025007
:1011500010408081882331F020E0AF016E2D8EE5B4
:101160000E948405DA94E0E1F0E0EE0EFF1ED7FE67
:10117000EBCF64E0D62E8B8999279F938F938A8932
:1011800099279F938F93898999279F938F9389E9B3
:1011900090E09F938F938E010C5E1F4F1F930F93D0
:1011A0000E94530F21E0A8016CE188E20E948B02AB
:1011B0000E94970681E00E9408032DB73EB7265F84
:1011C0003F4F0FB6F8943EBF0FBE2DBF882371F07E
:1011D000898999279C0148E150E060E070E08981AD
:1011E0009A810E943F07898B0E94070782E00E9434
:1011F0000803882371F08A8999279C014BE350E00A
:1012000060E070E08B819C810E943F078A8B0E9486
:1012100007078D2D0E940803882371F08B89992779
:101220009C014BE350E060E070E08D819E810E9464
:101230003F078B8B0E94070780E80E9408038823E2
:1012400019F080E090E014C080E10E940803882338
:1012500061F08989D5018C938A89F40180838B8917
:10126000D3018C9381E090E003C00E94300347CF0C
:101270006D960FB6F894DEBF0FBECDBFDF91CF9154
:101280001F910F91FF90EF90DF90BF90AF909F90D4
:101290008F907F906F90089520E030E090915505F9
:1012A00080915605981711F021E030E0C9010895AA
:1012B00080E08093560580935505089590915505DB
:1012C000809156059817D1F3809156058F5F8F71E5
:1012D00080935605E82FFF27EB5CFA4F8081992712
:1012E00008959091550580915605981719F480E05E
:1012F00090E0089580915505E82FFF27EB5CFA4FA9
:101300008081992708950F931F93CF938C01C62F47
:10131000662339F00E945E09F80181938F01C15064
:10132000C9F7CF911F910F9108950E944C0988230E
:10133000E1F30E945E09992708955D9BFECF8CB969
:1013400080E090E00895CF93DF93EC0188818823BB
:1013500041F060E070E089910E949D0988818823B6
:10136000C1F7DF91CF91089589B9539A549A579A4A
:1013700080E0809356058093550560E070E08DE92C
:1013800099E00E940C0F08951F920F920FB60F92D2
:1013900011242F938F939F93EF93FF939CB1809190
:1013A00055058F5F8F718093550520915605E5E3B4
:1013B000F5E0E80FF11D9083FF91EF919F918F91E0
:1013C0002F910F900FBE0F901F9018951F920F92A4
:1013D0000FB60F9211242F933F938F939F938FE615
:1013E00082BF26B320953091850523279091700503
:1013F000922390959093700580917105822389279F
:101400008093710598232923322730938505232360
:1014100080918405822B80938405332319F482E321
:1014200080937205809172058150809372058823A4
:1014300041F484E18093720580918305832B80932E
:1014400083058091D9009091DA0001979093DA009A
:101450008093D900892B49F484E090E09093DA00DE
:101460008093D90081E080936E059F918F913F9189
:101470002F910F900FBE0F901F9018950F931F93F1
:10148000CF93DF93CDB7DEB76E970FB6F894DEBF7C
:101490000FBECDBF80915C0599279F938F9380915C
:1014A0005D0599279F938F9380915E0599279F9360
:1014B0008F938BED90E09F938F938E010F5F1F4F63
:1014C0001F930F930E94530F2FEFA8016AE0862FFE
:1014D0000E94A8028091570599279F938F9380912E
:1014E0005A0599279F938F938091590599279F9328
:1014F0008F938091580599279F938F938AEE90E060
:101500009F938F931F930F930E94530F2FEFA80168
:1015100061E08AE00E948B028DB79EB746960FB6B7
:10152000F8949EBF0FBE8DBF6E960FB6F894DEBFC7
:101530000FBECDBFDF91CF911F910F9108950F93F3
:101540001F93CF93DF9381E00E940803882319F053
:1015500081E080936F0582E00E940803882319F0E0
:1015600082E080936F0588E00E940803882319F0C9
:1015700087E080936F0580E80E940803882319F0B4
:1015800083E080936F0580E40E940803882319F0AC
:1015900084E080936F0580E20E940803882319F09D
:1015A00085E080936F0580E10E940803882319F08D
:1015B00086E080936F050E94300380916F05C82FED
:1015C000DD27C330D10509F485C0C430D10554F4FA
:1015D000C130D10569F1C230D1050CF05BC0CD2B13
:1015E00089F036C1C530D10509F4C0C0C530D10578
:1015F0000CF494C0C630D10509F4D8C0279709F47B
:10160000F6C026C180916E05882309F423C10E948B
:1016100007070E94CD038FE595E00E94DC0C8093C4
:101620005C050E943E0A0E94970610926E0512C148
:101630004DE555E06EE575E08FE595E00E94D00C34
:1016400080915E0599279C0147E150E060E070E0E1
:101650008091CF009091D0000E943F079C01809321
:101660005E0581E080936D0540915D05622F8FE5F9
:1016700095E00E94C10C0E9407070E94CD038FE5F0
:1016800095E00E94DC0C80935C050E943E0A0E945B
:101690009706D9C04DE555E06EE575E08FE595E01C
:1016A0000E94D00C80915D0599279C014BE350E08E
:1016B00060E070E08091CD009091CE000E943F07E5
:1016C00080935D05482F60915E058FE595E00E944F
:1016D000C10CA6C007E515E028E535E049E555E071
:1016E0006AE575E08FE595E00E94E00C80915A056F
:1016F00099279C0143E650E060E070E08091D700BC
:101700009091D8000E943F0780935A050091570599
:101710002091580540915905682F23C007E515E031
:1017200028E535E049E555E06AE575E08FE595E0A7
:101730000E94E00C8091590599279C014CE050E0F3
:1017400061E070E08091D5009091D6000E943F0743
:10175000809359050091570520915805482F6091B5
:101760005A058FE595E00E94C50C5AC007E515E0C3
:1017700028E535E049E555E06AE575E08FE595E057
:101780000E94E00C8091580599279C014FE150E0A0
:1017900061E070E08091D3009091D4000E943F07F7
:1017A0008093580500915705282F1EC007E515E0C6
:1017B00028E535E049E555E06AE575E08FE595E017
:1017C0000E94E00C8091570599279C01AE0160E0D2
:1017D00070E08091D1009091D2000E943F078093E9
:1017E0005705082F2091580540915905B8CF8FE52E
:1017F00095E00E94B90C80935B0599279C014AE013
:1018000050E061E070E08091C9009091CA000E94B0
:101810003F0780935B05682F8FE595E00E94CD0C14
:1018200081E080936D050E9407070E94CD038FE53C
:1018300095E00E94DC0C80935C050E943E0A0E94A9
:1018400097060E94300310926F0580E090E004C07C
:1018500010926F0581E090E0DF91CF911F910F9181
:101860000895CFE5D8E0DEBFCDBFA39A02E020E126
:1018700046E069E08FE595E00E94C50C4BE061E130
:101880008FE595E00E94C10C0E94370389B7816003
:1018900089BF8FE682BF85E083BF80E288BF8FE289
:1018A00090E00E94B4090E94C90378940E94050345
:1018B00081E00E9439076EEF70E089EC90E00E94B1
:1018C00017040E9407070E94CD030E9497066FE944
:1018D0007AE08FE595E00E94BD0C4DE555E06EE5A0
:1018E00075E08FE595E00E94D00C07E515E028E54E
:1018F00035E049E555E06AE575E08FE595E00E9441
:10190000E00C10926D058FE595E00E94B40D1092E9
:10191000600510925F0580916D05882331F08FE599
:1019200095E00E94B40D10926D058FE595E00E9440
:10193000E40D8FE595E00E94FE0E4DE555E06EE565
:1019400075E08FE595E00E94D00CE1CF63E070E098
:101950008FE595E00E94B30C0895FC0173836283C8
:101960008AE084830895FC01738362838AE0848320
:101970000895FC01848199270895FC017587648787
:101980000895FC016583468308950F93FC016087E9
:101990004187228703870F910895FC01648308958E
:1019A000CF93DF93FB01EC018D8180838E81FA015F
:1019B0008083DF91CF910895FC0187819927089555
:1019C0000F931F93FC01DB0180858C938185DA01E5
:1019D0008C938285D9018C938385F80180831F9134
:1019E0000F910895CF93DF93EC0141E050E09A010D
:1019F0000A8002C0220F331F0A94E2F785B3822BBC
:101A000085BBE1E09C8184E1989FC001112484178B
:101A1000950774F026E63EE040E050E0BC01C901C5
:101A20000197F1F7EF5F8E2F992768177907BCF7B9
:101A300081E090E00A8002C0880F991F0A94E2F7C3
:101A4000982F909585B3892385BBEC85FD853097CC
:101A500031F00995882319F480E090E022C0E1E09C
:101A60008C81992723E0880F991F2A95E1F7009729
:101A700061F0A0E0B0E99C01CD010197F1F7EF5FC3
:101A80008E2F992728173907BCF78F818F5F8F8397
:101A90008881998101969983888381E38CB981E05B
:101AA00090E0DF91CF910895CF93DF93EC0141E077
:101AB00050E09A010A8002C0220F331F0A94E2F715
:101AC00085B3822B85BBE1E09C818AE0989FC001B1
:101AD00011248417950774F026E63EE040E050E0BC
:101AE000BC01C9010197F1F7EF5F8E2F99276817A5
:101AF0007907BCF781E090E00A8002C0880F991F47
:101B00000A94E2F7982F909585B3892385BBEC85DD
:101B1000FD85309731F00995882319F480E090E035
:101B200020C0E1E09C8189E0989FC00111240097CA
:101B300061F0A0E0B0E99C01CD010197F1F7EF5F02
:101B40008E2F992728173907BCF78F818F5F8F83D6
:101B50008881998101969983888380E38CB981E09B
:101B600090E0DF91CF910895DC0141E0FC01948188
:101B700084E1989FC0011124009761F0E0E0F0E952
:101B80009C01CF010197F1F74F5F842F9927281708
:101B90003907BCF7FD0117820895382F6AE00E94CB
:101BA000AB14292F832F9927821B91096AE070E0DB
:101BB0000E94B714CB0134E0880F991F3A95E1F7E2
:101BC000280F822F99270895AF92BF92CF92DF926C
:101BD000EF92FF920F931F93CF93DF93EC018E81CF
:101BE0000E94CD0DF82E8D810E94CD0DE82E8A85A4
:101BF0000E94CD0DD82E8B850E94CD0DC82E8985D3
:101C00000E94CD0DB82E88850E94CD0DA82E1F8272
:101C100011E0CE010E94540D882309F4E3C01F5F38
:101C20001531B8F3CE010E94F20C882309F4DAC012
:101C300000E011E08F2D992781709070882349F082
:101C4000CE010E94F20C882309F4CCC081E0082761
:101C500006C0CE010E94540D882309F4C3C0F69437
:101C60001F5F183038F3002331F0CE010E94F20CD0
:101C7000882339F4B7C0CE010E94540D882309F49B
:101C8000B1C000E011E08E2D9927817090708823FB
:101C900049F0CE010E94F20C882309F4A3C081E030
:101CA000082706C0CE010E94540D882309F49AC06B
:101CB000E6941F5F173038F3002331F0CE010E9405
:101CC000F20C882339F48EC0CE010E94540D882373
:101CD00009F488C000E011E08D2D99278170907083
:101CE000882349F0CE010E94F20C882309F47AC0BF
:101CF00081E0082706C0CE010E94540D882309F414
:101D000071C0D6941F5F173038F311E08C2D9927DE
:101D100081709070882349F0CE010E94F20C8823D4
:101D200009F460C081E0082706C0CE010E94540D6E
:101D3000882309F457C0C6941F5F143038F311E0AC
:101D40008B2D992781709070882349F0CE010E94D5
:101D5000F20C882309F446C081E0082706C0CE01B2
:101D60000E94540D882309F43DC0B6941F5F1630BD
:101D700038F311E08A2D992781709070882341F003
:101D8000CE010E94F20C882369F181E0082705C08A
:101D9000CE010E94540D882329F1A6941F5F1930AB
:101DA00048F3002331F0CE010E94F20C882331F475
:101DB00019C0CE010E94540D8823A1F010E09C812F
:101DC0008AE0989FC0011124009761F0E0E0F0E9FB
:101DD0009C01CF010197F1F71F5F812F992782178F
:101DE0009307BCF3DF91CF911F910F91FF90EF907C
:101DF000DF90CF90BF90AF9008950895FC01868149
:101E00008F5F86838C3338F0168285818F5F858360
:101E1000883108F0158208950F931F93CF93DF93B5
:101E20008C01EB01009711F4672BC1F16EE070E0BB
:101E300081E090E00E944012FC01892B71F180E862
:101E40008383209771F0D387C28781E88383809151
:101E5000860590918705892B21F4F0938705E093FF
:101E6000860501151105C9F01187008783818260FD
:101E700083838091880590918905892B71F4F09373
:101E80008905E093880580918A0590918B05892BBF
:101E900021F4F0938B05E0938A05CF01DF91CF9178
:101EA0001F910F9108950F931F93CF93DF93CDB799
:101EB000DEB72E970FB6F894DEBF0FBECDBF0D89EB
:101EC0001E892F89388D86E08C831A8309838FEFD2
:101ED0009FE79E838D83AE01475E5F4FB901CE01C0
:101EE00001960E94830FEF81F885E00FF11F1082A9
:101EF0002E960FB6F894DEBF0FBECDBFDF91CF9107
:101F00001F910F9108952F923F924F925F926F927F
:101F10007F928F929F92AF92BF92CF92DF92EF9279
:101F2000FF920F931F93CF93DF93CDB7DEB76297E6
:101F30000FB6F894DEBF0FBECDBFEE24FF2487019D
:101F40001C017E876D872A01CC24DD24FC01D78209
:101F5000C682838181FD68C28FEF9FEF78C28D8535
:101F60009E8501969E878D87C0FE4BC28F858053CC
:101F70008A30D0F49F85903339F4662029F4C3FC6D
:101F800003C0E0E0F1E08DC08AE0689E602C11247F
:101F9000FF856F0E20ED620E67FE02C05FE7652EC3
:101FA000C3FC42C2762C40C2C3FE04C0662011F4BA
:101FB00041E0642EEF858E2F992787FD9095883616
:101FC00091058CF5853691050CF06EC08335910531
:101FD00009F493C084359105CCF48B32910509F452
:101FE00049C08C3291054CF48032910509F446C009
:101FF0008332910509F44AC0FEC18D32910509F47E
:1020000040C08E32910509F444C0F5C18336910574
:1020100009F450C0843691050CF08AC088359105CA
:1020200009F4BCC0E8C18037910509F4B1C081371B
:10203000910584F48C36910591F18D3691052CF43F
:102040008936910509F474C0D6C18F36910509F41B
:102050009CC0D1C18537910509F4A2C0863791058E
:1020600024F48337910571F1C6C18837910509F4CD
:1020700095C0C1C180E190E0C82AD92AE0E2F0E031
:1020800010C080E890E0C82AD92ACEC1E0E4F0E090
:1020900008C088E090E0C82AD92A6624C5C1E4E0D7
:1020A000F0E0CE2ADF2AC0C13FE3E32E7A94F3E6C4
:1020B000FF873CC1F20182E090E0480E591EE080AB
:1020C0007A9434C1F20182E090E0480E591EA0815A
:1020D000B1817D01C3FE09C0862D992787FD9095AA
:1020E000BC01CD010E9470131FC0FD0101900020B2
:1020F000E9F73197EA1BE88B18C0F20182E090E023
:10210000480E591E0190F081E02D7F01C3FE09C0E9
:10211000862D992787FD9095BC01CF010E945B1306
:1021200003C0CF010E945213888B9889791AFEC090
:10213000C2FE0AC0F20184E090E0480E591E2081E0
:102140003181428153810CC0F20182E090E0480E5F
:10215000591E808191819C01442737FD4095542F61
:1021600079018A0157FF0CC0E2E0F0E0CE2ADF2AB5
:1021700010950095F094E094E11CF11C011D111DD7
:102180008FEB9FEFC822D92227C098E0988B08C018
:10219000E0E4F0E0CE2ADF2AF8E7FF8720E1288B91
:1021A000C2FE0AC0F20184E090E0480E591E208170
:1021B0003181428153810AC0F20182E090E0480EF1
:1021C000591E808191819C014427552779018A01FC
:1021D000EFECFFEFCE22DF22CE0101969A8B898BA6
:1021E0009889892E9924AA24BB24C801B701A50186
:1021F00094010E94E414DC01CB01E989FA8980830F
:102200008A3024F0FF858F0F815201C0805DE989FB
:10221000FA898193FA8BE98BC801B701A501940172
:102220000E94E41479018A01211531054105510507
:10223000E1F6E98881E090E08C0F9D1FE81AC60165
:1022400082739070892B09F07A94C6FE0DC0872D99
:10225000992787FD9095E889E03121F42EEF722EC1
:10226000780E02C0782E7A94C3FE0FC0262D332735
:1022700027FD30958E2D9927821793072CF087EF35
:102280009FEFC822D92201C06E18C3FE02C0761883
:1022900001C07E18C60180789170892B51F4872D7A
:1022A0007A94181634F4B10180E290E00E947B1316
:1022B000F6CFC1FE04C0B1018DE290E00BC0C4FEB8
:1022C00004C0B1018BE290E005C0C5FE05C0B101BC
:1022D00080E290E00E947B13C6FE10C0B10180E353
:1022E00090E00E947B139889903141F4B101EF8511
:1022F0008E2F992787FD90950E947B13D0FE0AC0F0
:10230000872D7A94181634F4B10180E390E00E948E
:102310007B13F6CFC3FE0AC0862D6A94181634F4D8
:10232000B10180E390E00E947B13F6CF90E8B92ED4
:10233000BC2051F4872D7A94181634F4B10180E250
:1023400090E00E947B13F6CFFF85F33641F48E2D8B
:10235000B101992787FD90950E947B1340C02F857E
:102360002337B1F488898150888B8F3FC1F1F70101
:1023700080810894E11CF11CB101992787FD90959B
:102380000E947B1398899150988B9F3F81F727C0BB
:10239000EF85E33579F4F889F150F88BFF3FF9F0D8
:1023A000F7018491B10199270E947B130894E11CE5
:1023B000F11CF1CF6E010894C11CD11C89899A8946
:1023C0008C159D0561F0E989FA898291FA8BE98B78
:1023D000B101992787FD90950E947B13EFCFBB2019
:1023E00069F0872D7A9418164CF4B10180E290E0E0
:1023F0000E947B13F6CFB1010E947B13CC24DD2415
:1024000013C09F85953241F481E0C82ED12C6624FB
:10241000762CEAE0E88B08C0B101FF858F2F992761
:1024200087FD90950E947B13F101838183FF04C097
:10243000ED85FE85F49103C0ED85FE85F081FF8773
:102440002F85222309F08BCDF10186819781629639
:102450000FB6F894DEBF0FBECDBFDF91CF911F91B5
:102460000F91FF90EF90DF90CF90BF90AF909F9033
:102470008F907F906F905F904F903F902F90089536
:102480000F931F93CF93DF93869F8001879F100D3B
:10249000969F100D1124C8010E945C12EC01009758
:1024A00029F0A80160E070E00E946613CE01DF9180
:1024B000CF911F910F910895CF93DF93AC010297B5
:1024C00010F442E050E020E030E0A0918E05B091A1
:1024D0008F05BD01F901109709F44CC08D919C91B5
:1024E00011978417950731F14817590738F42115CA
:1024F000310519F08217930708F49C01FD01A281B0
:10250000B381109759F721153105A1F1C901841B39
:10251000950B049708F4A901DB01E0E0F0E01097C7
:1025200049F18D919C91119782179307F9F4421705
:10253000530779F4ED018A819B81309719F09383D9
:10254000828304C090938F0580938E05CD010296FF
:102550004AC0241B350BFD01E20FF31F4193519339
:10256000225030402D933C93CF013DC0FD01A2810C
:10257000B381D5CF80918C0590918D05892B41F445
:10258000809115019091160190938D0580938C0593
:10259000E0911301F0911401309741F4EDB7FEB7CB
:1025A0008091170190911801E81BF90BA0918C05FF
:1025B000B0918D059F012A1B3B0B2417350788F02E
:1025C000CA0102962817390760F0CD01840F951FC4
:1025D000029690938D0580938C054D935D93CD016C
:1025E00002C080E090E0DF91CF910895CF93DF9318
:1025F000009709F454C0DC011297ED011B821A8286
:1026000080918E0590918F05009721F1FC0140E0AB
:1026100050E0EA17FB0718F1ED01FB83EA832D91E7
:102620003C911197C20FD31FCE0102968E179F07C0
:1026300071F48A819B81280F391F2E5F3F4F1196BD
:102640003C932E9382819381FD0193838283411574
:10265000510559F4B0938F05A0938E0520C0AF01AA
:102660000280F381E02D3097A1F6EA01BB83AA83B3
:10267000CA01029628813981820F931F8A179B070E
:1026800071F48D919C911197280F391F2E5F3F4F48
:1026900039832883FD01828193819B838A83DF9123
:1026A000CF910895FC0105900020E9F78095909561
:1026B0008E0F9F1F0895FC0105906150704001101E
:1026C000D8F7809590958E0F9F1F0895DC0140FFED
:1026D00003C001C06D936D9342505040D8F70895E8
:1026E000FC016150704001900110D8F780959095E1
:1026F0008E0F9F1F08950F931F93CF93DF938C012D
:10270000EB018B81992781FF1CC082FF0DC02E81B8
:102710003F818C819D812817390764F4E881F98114
:102720000193F983E88306C0E885F985802F099530
:10273000892B39F48E819F8101969F838E83C801F6
:1027400002C08FEF9FEFDF91CF911F910F910895FE
:102750008CD001D06FC0552359F0992369F09F5751
:102760005F57951B33F442F4903811F4915805C02B
:1027700079C091589F3F09F4A4C0BB271124621768
:102780007307840730F4660F771F881FBB1F9150B3
:1027900098F311D00F920FD00F920DD0A0E826170A
:1027A000370748071B0609F0A048BA2F602D7F9114
:1027B0008F9100240895A0E800246217730784070E
:1027C000B10528F0621B730B840BB1090A2A660F4E
:1027D000771F881FBB1FA69581F7089597FB51D0DF
:1027E0009F3738F0FEE9F91B982F872F762F6B2F34
:1027F00005C064C09695879577956795F150D0F799
:102800003EF490958095709561957F4F8F4F9F4FC7
:102810000895E89403C097FB0EF4F3DFB62F672FFB
:10282000782F892F9EE9002405C09A95BB0F661F5B
:10283000771F881F11249923A1F08823B2F79F3FA7
:1028400059F0BB0F48F421F4002011F460FF04C0DC
:102850006F5F7F4F8F4F9F4F881F9795879597F991
:1028600008952CC09FEF80EC0895052E092607FAE5
:10287000440F551F5F3F79F0AA27A51708F051E0D4
:102880004795880F991F9F3F31F0BB27B91708F074
:1028900091E0879508959F919F911124E3CF97FB35
:1028A000880F991F9F3F31F0BB27B91708F091E0BF
:1028B000879508959F919F911124D4CF66277727FC
:1028C000882799270895D1DF01D0B4CF992339F013
:1028D000552329F09F575F57950F13F49AF1F1CFC5
:1028E00091589F3FE1F3629FA12D0F92BB27639FF9
:1028F000A00DB11DEE27729FA00DB11DEE1FAF936D
:10290000AA27649FB00DE11D739FB00DE11DAA1FA2
:102910006627829FB00DE11DA61F5527749FE00D0D
:10292000A11D551F839FE00DA11D561F849FA00D63
:10293000511D852F7A2F6E2F1F900F9088231AF428
:10294000939539F48FCF000C111CBB1F661F771FA6
:10295000881F01280895991B79E004C0991F9617D4
:1029600008F0961B881F7A95C9F78095089597FB04
:10297000092E07260AD077FD04D00CD006D00020FF
:102980001AF4709561957F4F0895F6F790958195AB
:102990009F4F0895AA1BBB1B51E107C0AA1FBB1F75
:1029A000A617B70710F0A61BB70B881F991F5A95DB
:1029B000A9F780959095BC01CD010895EE0FFF1FFA
:1029C0000590F491E02D0994A1E21A2EAA1BBB1BDD
:1029D000FD010DC0AA1FBB1FEE1FFF1FA217B307EB
:1029E000E407F50720F0A21BB30BE40BF50B661F01
:1029F000771F881F991F1A9469F7609570958095C5
:0C2A000090959B01AC01BD01CF01089531
:102A0C00256400455343002B002D004F4B00630001
:102A1C00670069006B002564005374642E004D69D7
:102A2C006E2E005365632E000079007E00830088B3
:102A3C00006300880088006B00252E32643A252E36
:102A4C0032643A252E326400004D696E757400486C
:102A5C006F757200576544617900446179004D6F60
:102A6C006E7468005965617200A800A800A900AFD7
:102A7C0000B400BA00BE00C4000400252E32643A33
:102A8C00252E32643A252E326400252E32642D25F3
:102A9C002E32642D252E326420252E3264004443C0
:102AAC004637372053696D756C61746F72205630E0
:0A2ABC002E330000009005200000FA
:00000001FF
