:100000000C94AB000C94C8000C94DA010C94C8005A
:100010000C94C8000C94C8000C94C8000C94C80040
:100020000C94C8000C943F040C94C8000C94BF05B9
:100030000C94C8000C94C8000C94C8000C94C80020
:100040000C94C8000C94C8000C94C8000C94C80010
:100050000C94C800756E6B6E6F776E20636F6D6D5C
:10006000616E640D0A0072207265616420766972A7
:100070007475616C205265676973746572203C68A1
:100080002C6C3E20652E672E2030322028205249CD
:1000900044290D0A007720777269746520766972A9
:1000A0007475616C205265676973746572203C6871
:1000B0002C6C3E286164647265737329203C682C43
:1000C0006C3E202876616C75652920652E6720308E
:1000D000352030300D0A0064206465627567206C3D
:1000E0006576656C203C6C3E20303D6F6666203145
:1000F0003D0D0A00742064636620747572626F207F
:100100006D6F6465203C743E2031303D64656661EE
:10011000756C742031203D20313078206661737415
:100120006572000D0A00616E616C6F672064656C1A
:1001300061793A000D0A00747572626F206D6F6408
:10014000653A000D0A00726573756C743A00766149
:100150006C75653A000011241FBECFE5D4E0DEBF08
:10016000CDBF11E0A0E6B0E0E8EBFAE202C00590F6
:100170000D92A839B107D9F712E0A8E9B1E001C0A2
:100180001D92A33DB107E1F70E94DC090C945A15BA
:100190000C940000F8949091980189239091980113
:1001A00098279093980178940895F89490919A01E3
:1001B0008923982790939A0178940895F894F89455
:1001C0002091980190919901909589238223909193
:1001D000980198279093980178940895982FF8940F
:1001E00080919A019823892780939A017894F894B2
:1001F0008091980189239091980198279093980174
:10020000789408953091990126B3209523279091F1
:100210009D019223909590939D0180919C01822352
:10022000892780939C0189238223982F9327909379
:100230009901209198019823922B9093980181E342
:1002400080939B0108958A3310F4805301C0875531
:100250006A3310F4605301C067556F708295807FD8
:10026000862B08951F93982F92959F70182F1F70BB
:100270009A3018F4892F805D02C0892F895A0E9414
:100280007C051A3018F4812F805D02C0812F895AB5
:100290000E947C051F9108951F93883609F457C06A
:1002A000893620F4813609F061C03BC0843771F192
:1002B000873709F05BC00E943505182F0E9435056D
:1002C000682F812F0E9423010E94320100D08EE40A
:1002D00091E0EDB7FEB7928381830E9469110F9080
:1002E0000F900E943505182F0E943505682F812F29
:1002F0000E9423010E94320186E491E00E949E0543
:1003000080E00E94320183E491E032C00E94350512
:100310000E94350587E391E00E949E0584E391E009
:1003200027C00E943505182F0E943505682F812FA0
:100330000E9423010E94320186E291E00E949E0504
:100340008091F3000E94320183E291E011C084EFBA
:1003500090E00E949E0587ED90E00E949E0585E951
:1003600090E00E949E0586E690E002C084E590E061
:100370000E949E051F9108958AE080939E01E3EA02
:10038000F1E087E01192815087FFFCCF88E0109266
:10039000AB011092AC011092B9011092AE01109213
:1003A000AD011092A2011092B80185BF8BB7806891
:1003B0008BBF08951F920F920FB60F9211242F93A7
:1003C0003F934F935F936F938F939F93EF93FF931D
:1003D00085B760919E018830E1F58AEA689F9001B7
:1003E00011248091AF019091B00128173907F8F4DA
:1003F0001092AC011092AB01E3EAF1E087E01192B8
:10040000815087FFFCCF9091B801913071F48CE35B
:1004100080939F018091B1018093A0018091B201EE
:100420008093A1019093A20102C08FE682BF80E574
:10043000689F900111248091AF019091B00128171D
:10044000390710F48CE085BF1092B0011092AF0113
:100450001FC1E0E0F0E085E0689F802D1124282F87
:1004600033278091AF019091B0012817390710F41C
:10047000E1E0F0E040E050E08DE0689F802D112445
:10048000282F33278091AF019091B00182179307F5
:1004900010F441E050E08E2F842349F08091AC01AC
:1004A0008B3308F4CCC081E08093B901E6C0E0E072
:1004B000F0E08FE0689F802D1124282F3327809152
:1004C000AF019091B0012817390710F4E1E0F0E096
:1004D00040E050E087E1689F802D1124282F3327CA
:1004E0008091AF019091B0018217930710F441E021
:1004F00050E09E2F942309F4A8C08091AC018B3367
:1005000020F082E08093B9019AC08091AC018A33D7
:1005100021F481E08093AA0192C08091AC018233E2
:1005200088F08091AC019927C29721E030E002C0A9
:10053000220F331F8A95E2F78091A901822B8093C5
:10054000A9017DC08091AC018D3288F08091AC0111
:1005500099278D9721E030E002C0220F331F8A9542
:10056000E2F78091A801822B8093A80168C0809156
:10057000AC018A3288F08091AC0199278A9721E0FA
:1005800030E002C0220F331F8A95E2F78091A70165
:10059000822B8093A70153C08091AC01843288F0F4
:1005A0008091AC019927849721E030E002C0220FAE
:1005B000331F8A95E2F78091A601822B8093A601D2
:1005C0003EC08091AC018D3188F08091AC019927BB
:1005D0004D9721E030E002C0220F331F8A95E2F7E9
:1005E0008091A501822B8093A50129C08091AC0147
:1005F000853188F08091AC019927459721E030E062
:1006000002C0220F331F8A95E2F78091A401822B4A
:100610008093A40114C08091AC018F3080F0809150
:10062000AC0199270F9721E030E002C0220F331F61
:100630008A95E2F78091A301822B8093A301809198
:10064000AC018F5F8093AC0118C083E08093B90147
:100650009093AC019093AB01E3EAF1E087E0119253
:10066000815087FFFCCF8091AF019091B0019093B2
:10067000BB018093BA011092A2018091AC018B332F
:1006800018F081E08093B70188E085BF1092AB013C
:10069000FF91EF919F918F916F915F914F913F915A
:1006A0002F910F900FBE0F901F901895282F90E05C
:1006B000222329F0822F817098272695F9CF892F40
:1006C00099270895482F282F332764E036952795DA
:1006D0006A95E1F7C90153E0880F991F5A95E1F730
:1006E000820F931F820F4F70840F992708951F93D5
:1006F000CF931091B701113009F08DC088E080933D
:10070000B9011092B7011092B801C091A401CC1F99
:10071000CC27CC1F8091A4018F770E945603282FED
:1007200033278C2F99272817390711F084E054C0FC
:100730008091A4018F770E9462038093B101809120
:10074000A501992780749070A6E095958795AA9544
:10075000E1F7C82F8091A5018F730E945603282FBF
:1007600033278C2F99272817390711F085E034C0DB
:100770008091A5018F730E9462038093B2018091E2
:10078000A6010E945603C82F8091A7010E9456031C
:100790009927880F991FC82B8091A8010E945603A2
:1007A0009927880F991F880F991FC82B8091A9013D
:1007B0000E945603992773E0880F991F7A95E1F7F5
:1007C0008C2B0E9456039091AA01292F3327992739
:1007D0002817390721F086E08093B9011CC0809169
:1007E000A6010E9462038093B4018091A7010E9438
:1007F00062038093B3018091A8010E9462038093F9
:10080000B5018091A9010E9462038093B601109204
:10081000B9011093B801CF911F91089580E090E045
:100820000895982F40E050E083E886B997B93E9A42
:10083000369A86B1992766E0969587956A95E1F78D
:10084000817090708823A9F7282F369A86B199274E
:1008500036E0969587953A95E1F7817090708823F8
:10086000A9F784B195B1480F591F2F5F243068F361
:100870003798CA01969587959695879508951F9202
:100880000F920FB60F9211242F933F934F935F93C4
:100890006F937F938F939F93AF93BF93EF93FF9348
:1008A0008FE682BFE091C501F091C601309709F053
:1008B00009958091CB019091CC0101979093CC0147
:1008C0008093CB018091CB019091CC01892B59F47D
:1008D0008091C20184608093C20181E090E0909396
:1008E000CC018093CB018091CD019091CE010197F5
:1008F0009093CE018093CD018091CD019091CE0156
:10090000892B59F48091C20182608093C20184E6F0
:1009100090E09093CE018093CD01FF91EF91BF9134
:10092000AF919F918F917F916F915F914F913F9187
:100930002F910F900FBE0F901F90189589B781606F
:1009400089BF8FE682BF85E083BF80E288BF81E0F8
:1009500090E09093CE018093CD019093CC01809351
:10096000CB011092C2010895E091C901F091CA0132
:10097000309709F009958091C2018D7F8093C20163
:100980000895E091C701F091C801309709F00995E9
:100990008091C2018B7F8093C20108959093CA0118
:1009A0008093C9010E949E0408959093C80180938A
:1009B000C7010E949E0408959093C1018093C001D5
:1009C00008959093C4018093C30108959093C60144
:1009D0008093C50108950E941F05882369F00E9435
:1009E0004C058D3011F08A3039F40E943505E091C4
:1009F000C301F091C401099508958091C20199271E
:100A00009695879581709070882311F00E94B404A8
:100A10008091C201992796958795969587958170C3
:100A20009070882311F00E94C1040E94EB04E091B1
:100A3000C001F091C101309701F30995DECF40E08C
:100A400050E08091F001282F33278091EF01992702
:100A50002817390711F041E050E0CA01089580E0FD
:100A60008093EF018093F00108958091F001282F89
:100A700033278091EF01992728173907B1F3809127
:100A8000EF018F5F8F718093EF01E82FFF27E15314
:100A9000FE4F8081992708958091F001282F3327F8
:100AA0008091EF0199272817390719F480E090E029
:100AB00008958091F001E82FFF27E153FE4F8081D8
:100AC000992708950F931F93CF938C01C62F662308
:100AD00039F00E943505F80181938F01C150C9F7A3
:100AE000CF911F910F9108950E941F058823E1F374
:100AF0000E94350599270895482F21E030E08BB1F9
:100B0000992755E0969587955A95E1F7822793277F
:100B100080FDF5CF4CB90895482F21E030E08BB12E
:100B2000992765E0969587956A95E1F7822793273F
:100B300080FDF5CF4CB980E090E00895CF93DF932E
:100B4000EC018881882341F060E070E089910E9487
:100B50008C0588818823C1F7DF91CF91089589B9E9
:100B6000539A549A579A80E08093EF018093F00152
:100B700060E070E08CE895E00E941D1108951F92DE
:100B80000F920FB60F9211242F938F939F93EF9391
:100B9000FF939CB18091F0018F5F8F718093F00182
:100BA0002091EF01EFECF1E0E80FF11D9083FF9150
:100BB000EF919F918F912F910F900FBE0F901F90EB
:100BC000189511B881E480B90895982F84EA86BFFA
:100BD00006B607FEFDCF81B1887F883011F08031E5
:100BE00051F493B984E886BF06B607FEFDCF81B104
:100BF000887F883119F081E090E0089580E090E0EE
:100C00000895282F54EA44E834E956BF06B607FE93
:100C1000FDCF81B1887F883011F08031B1F723B9E1
:100C200046BF06B607FEFDCF81B1887F803211F046
:100C3000883569F436BF86B7992764E0969587951D
:100C40006A95E1F7817090708823A9F7DECF089547
:100C50000E94E5059927089584E986BF86B79927FC
:100C600074E0969587957A95E1F781709070882366
:100C7000A9F7089583B984E886BF06B607FEFDCFBD
:100C800081B1887F883219F081E090E0089580E09A
:100C900090E0089584EC86BF06B607FEFDCF83B1D1
:100CA0009927089584E886BF06B607FEFDCF83B175
:100CB00099270895959A089595980895FC01DB0168
:100CC0002091A1014091A00182815181FCE32F9FDD
:100CD00090011124240F311D8F9FC0011124850F15
:100CE000911D2817390714F4E0E018C02091A101E4
:100CF0004091A00112968C91129711965C91E0E0C0
:100D00002F9F90011124240F311D8F9FC0011124AA
:100D1000850F911D821793070CF0E1E08E2F089547
:100D200096E0909311028FE08093100210920F02D0
:100D30008091B5018630B9F0873048F4833091F066
:100D4000843080F0843059F0853061F408C08930F7
:100D500031F08A3038F4873011F0883019F49093EC
:100D60001102089589E18093110208958091B501DF
:100D70008630F1F0873070F4833001F1843028F44C
:100D80008130F1F08230E1F419C08430A9F085306F
:100D9000B9F410C0893081F08A3028F4873051F0DE
:100DA000883071F407C08B3059F08B3038F008C0B0
:100DB00085E107C084E105C083E103C081E101C092
:100DC00080E18093050208950E94B60683E092E0D8
:100DD00067E072E00E945E0608950E9490066FE050
:100DE00072E0CB010E945E060895892B51F0672BBB
:100DF00029F0979882B390E4892708C0979896982D
:100E00000895672B29F0969A82B3805882BB089583
:100E1000969A979A08950895E8E8F2E041E050E044
:100E200024B3CA01008002C0880F991F0A94E2F718
:100E3000282B24BB329682E0E239F80789F7BC9868
:100E40008D9A87B38F6087BB8B98939AA59A81B34D
:100E5000806C81BBBD98C59A8C9A08951F93182FFA
:100E6000882319F0813071F406C0109200021092AC
:100E7000FF01949807C080EE9EE290930002809359
:100E8000FF01949A2091A1013091A00140919F010E
:100E90008DB79EB708970FB6F8949EBF0FBE8DBF53
:100EA000EDB7FEB7319680E690E0ADB7BEB71296CB
:100EB0009C938E93119722831382348315824683E9
:100EC00017820E9469110F900F90EDB7FEB731960F
:100ED00082E790E0ADB7BEB712969C938E931197C0
:100EE0008091C40282831382148315820E94691147
:100EF0001093C4028DB79EB706960FB6F8949EBFA6
:100F00000FBE8DBF1F9108951F93182F8FE090E0A3
:100F10009093FE018093FD01112321F49093FE0133
:100F20008093FD012091A1013091A00140919F018A
:100F30008DB79EB708970FB6F8949EBF0FBE8DBFB2
:100F4000EDB7FEB7319680E690E0ADB7BEB712962A
:100F50009C938E9311972283138234831582468348
:100F600017820E9469110F900F90EDB7FEB731966E
:100F700089E890E0ADB7BEB712969C938E93119717
:100F80008091C30282831382148315820E946911A7
:100F90001093C3028DB79EB706960FB6F8949EBF06
:100FA0000FBE8DBF1F91089580919F018F5F809329
:100FB0009F0180919F018C33E0F010929F018091FE
:100FC000A2018823B1F48091A0018F5F8093A001DA
:100FD0008091A0018C3368F08091A1018F5F809394
:100FE000A1011092A0018091A101883110F010920E
:100FF000A101909101028091B301981751F0809165
:10100000B301809301020E94B6068BE092E00E9439
:10101000BB0D0895DF93CF93CDB7DEB728970FB6FA
:10102000F894DEBF0FBECDBF1F821E8287E18B8387
:101030008BE38A838BE092E00E94BB0D81EF91E00D
:10104000BE016F5F7F4F0E945E06882339F4CE0198
:1010500005966BE072E00E945E06811181E02896A1
:101060000FB6F894DEBF0FBECDBFCF91DF910895CC
:10107000FF920F931F93CF93DF93F82E81E0F81622
:1010800051F0F816C0F192E0F916B9F1A3E0FA16A2
:1010900009F05BC039C01092C60295980E94900674
:1010A0000E94B6068BE092E00E94BB0D8091B301D6
:1010B0008093010280910202882309F446C01092B5
:1010C0000202C0E0D0E08E01000F111F0C0F1D1FA7
:1010D000000F111F000F111F0E561D4FC801609108
:1010E000C2020E94F00DC8010E94DB0F2196C4309D
:1010F000D10549F72AC0959828C00E94B6068BE012
:1011000092E00E94BB0D21C08091A1018093F30168
:101110008091A0018093F20180919F018093F10161
:101120000E94B6068BE092E00E94BB0D959A109249
:10113000C60280EC94EDA1E0B0E08093F9019093B9
:10114000FA01A093FB01B093FC012091A101309121
:10115000A00140919F018DB79EB708970FB6F894F4
:101160009EBF0FBE8DBFEDB7FEB7319680E690E013
:10117000ADB7BEB712969C938E93119722831382BC
:1011800034831582468317820E9469110F900F9055
:10119000EDB7FEB7319680EA90E0ADB7BEB71296D4
:1011A0009C938E9311978091C50282831382F4825F
:1011B00015820E946911F092C5028DB79EB70696FE
:1011C0000FB6F8949EBF0FBE8DBFDF91CF911F91D8
:1011D0000F91FF900895EF92FF920F931F9381E07C
:1011E000809302028CE292E067E040E00E941011DE
:1011F0008CE292E068E572E020E839EA43E050E0F2
:10120000E0E6EE2EEAEEFE2E012D112D0E94F010EA
:1012100083E492E066E040E00E94101183E492E0F3
:1012200068E572E020E839EA43E050E00E94F010FF
:101230008AE592E064E040E00E9410118AE592E0C5
:1012400063EA72E020E63AEE40E050E00E94F010DF
:1012500085E192E062E040E00E94101185E192E0B9
:1012600064EF71E020E63AEE40E050E00E94F010BA
:1012700081E792E063E041E00E94101181E792E093
:1012800064EF71E020E030E040E050E0EE24FF2425
:1012900087010E94F01085B380938B0287E08093D2
:1012A0008A0285B380938D0286E080938C0285B399
:1012B00080938F0284E080938E0285B380938902AD
:1012C00082E08093880285B38093910283E08093CB
:1012D0009002E8E8F2E041E050E024B3CA01008067
:1012E00002C0880F991F0A94E2F7282B24BB32967C
:1012F00082E0E239F80789F780E1809305021092D5
:1013000003021092040287E1809309029EE1909308
:1013100008021092070286E080930D0290930C025F
:1013200010920B02809311028FE0809310021092B2
:101330000F0280E00E94380880E00E94840780E06D
:101340000E942E070E94BC0182E992E060E00E94A8
:10135000D30E82E992E068E040E02EE000E00E94D7
:10136000B30D8EE992E061E00E94D30E8EE992E027
:101370006FE040E02FE00EE10E94B30D8AEA92E0B8
:1013800062E00E94D30E8AEA92E060E140E024E14C
:1013900000E00E94B30D86EB92E063E00E94D30E62
:1013A00086EB92E063E14EE124E10E94B30D1F91D0
:1013B0000F91FF90EF90089587E090E00E94AF05B5
:1013C0000E940C070E94E1050E94EB0884ED97E063
:1013D0000E94CE048EE59BE00E94D50482E091E05D
:1013E0000E94E6048CE491E00E94E104789400D02D
:1013F00085EB90E0EDB7FEB7928381830E9469117F
:101400000F900F900E94FD0480E090E00895CF922D
:10141000DF92EF92FF920F931F93CF93DF9308E831
:1014200012E0C0E0D0E0A7E1CA2ED12CF1E0EF2E0F
:10143000F12CCC9DC001CD9D900DDC9D900D112413
:101440008B5E9D4F0E946510F8019081882361F0AA
:1014500025B3A70102C0440F551F9A95E2F7CA01B0
:101460008095822385BB09C025B3F70102C0EE0F2A
:10147000FF1F9A95E2F72E2B25BB21960E5F1F4F7B
:10148000C530D105B1F6839B02C0AD9A01C0AD98BD
:10149000DF91CF911F910F91FF90EF90DF90CF9050
:1014A0000895CF93DF93C0E0D0E005C0219683E09C
:1014B000C93ED80791F08AE10E94E5058823B1F77B
:1014C00082E50E943A06809111020E943A068091BC
:1014D00010020E943A060E942C06DF91CF910895D7
:1014E000CF93DF93C0E0D0E005C0219683E0C93EF2
:1014F000D807D1F08AE10E94E5058823B1F787E596
:101500000E943A068091F7010E943A068091F60106
:101510000E943A0680910D020E943A0680910C02C8
:101520000E943A060E942C06DF91CF910895CF9336
:10153000DF93C0E0D0E005C0219683E0C93ED80724
:1015400009F18AE10E94E5058823B1F783E50E944D
:101550003A068091C5020E943A0680E00E943A064F
:101560008091F3010E943A068091F2010E943A06AE
:10157000809109020E943A06809108020E943A0670
:101580000E942C06DF91CF910895CF93DF93C0E0A6
:10159000D0E004C02196CB30D105B1F08AE10E94A1
:1015A000E5058823B9F786E40E943A068091B801E0
:1015B0000E943A068091AC010E943A068091B901DE
:1015C0000E943A060E942C06DF91CF910895CF9396
:1015D000DF93C0E0D0E004C02196CB30D105D1F03C
:1015E0008AE10E94E5058823B9F784E40E943A065F
:1015F0008091B4010E943A068091B3010E943A069C
:101600008091B5010E943A068091B6010E943A0687
:101610000E942C06DF91CF910895CF93DF93C0E015
:10162000D0E004C02196CB30D105B1F08AE10E9410
:10163000E5058823B9F784E50E943A068091A10167
:101640000E943A068091A0010E943A0680919F0173
:101650000E943A060E942C06DF91CF910895809156
:1016600014028230A1F0833028F4882351F08130B5
:10167000C9F40AC0843089F0843060F0853091F478
:101680000FC00E940D0B0EC00E94E70A0BC00E9403
:10169000C50A08C00E94970A05C00E94510A02C0EC
:1016A0000E94700A809114028F5F809314028091CF
:1016B0001402863011F4109214020895FF920F93D1
:1016C0001F93CF93DF93F090C20226B322952F7021
:1016D000209521702093C2028091AF019091B001BA
:1016E0000A969093B0018093AF018091AF019091E1
:1016F000B0018958934110F01092A2018091C30269
:10170000882301F58091FD019091FE01019790934E
:10171000FE018093FD018091FD019091FE01892BD6
:1017200061F4822F90E061E070E00E94F5068FE0A6
:1017300090E09093FE018093FD01C0E0D0E007E1CE
:1017400010E007C0822F90E060E070E00E94F50694
:10175000F4CFC09FC001C19F900DD09F900D112468
:101760008B5E9D4F0E947F102196C530D10589F771
:101770000E9477038091C402882319F08130C9F454
:1017800006C00E94ED068823A1F081E010C0809180
:10179000FF01909100020197909300028093FF0156
:1017A0008091FF0190910002892B19F480E00E9442
:1017B0002E070E94070A8091C502813039F08130DE
:1017C00058F0823071F08330D9F413C00E94E406DF
:1017D0008823B1F082E012C08091A201882381F0B9
:1017E0000CC085E192E00E945F10882349F083E0FD
:1017F00005C00E94E406882319F481E00E9438089D
:101800008091F9019091FA01A091FB01B091FC0146
:101810000097A105B10551F18091F9019091FA016C
:10182000A091FB01B091FC010197A109B10980933E
:10183000F9019093FA01A093FB01B093FC01809110
:10184000F9019091FA01A091FB01B091FC01009780
:10185000A105B10559F481E08093C6028091B201DF
:101860008093F7018091B1018093F6018091C302CA
:10187000882341F480E20E94CA00882319F081E0A5
:101880000E9484078091C502882309F4C8C08CE2B5
:1018900092E00E946210882331F483E492E00E9477
:1018A0006210882341F08AE592E00E94621088234A
:1018B00011F001E001C000E08CE292E00E945F10B4
:1018C000882341F083E492E00E945F10882311F0A6
:1018D00011E001C010E08091C7028017D1F1209182
:1018E000A1013091A00140919F018DB79EB708974B
:1018F0000FB6F8949EBF0FBE8DBFEDB7FEB7319601
:1019000080E690E0ADB7BEB712969C938E93119788
:101910002283138234831582468317820E946911C1
:101920000F900F900F900F90EDB7FEB7319680EDAE
:1019300090E0ADB7BEB712969C938E931197028339
:1019400013820E9469110093C7020F900F900F90AD
:101950000F908091C8028117D1F12091A10130919F
:10196000A00140919F018DB79EB708970FB6F894DC
:101970009EBF0FBE8DBFEDB7FEB7319680E690E0FB
:10198000ADB7BEB712969C938E93119722831382A4
:1019900034831582468317820E9469110F900F903D
:1019A0000F900F90EDB7FEB7319681EE90E0ADB796
:1019B000BEB712969C938E931197128313820E9446
:1019C00069111093C8020F900F900F900F90C0E014
:1019D000D0E06091C202F61669F0CE01880F991F1F
:1019E0008C0F9D1F880F991F880F991F8E569D4F32
:1019F0000E94F00DCE01880F991F8C0F9D1F880F3C
:101A0000991F880F991F8E569D4F602F412F20914F
:101A1000C6020E949D0F2196C430D105D1F6809157
:101A200013028F5F8093130280911302803120F0A4
:101A3000109213020E942F0BDF91CF911F910F91F3
:101A4000FF900895FC018281882329F481818823F5
:101A500011F470E016C02091A1015091A001828183
:101A6000618170E04CE3249F90011124250F311D0A
:101A7000849FC0011124860F911D2817390709F48E
:101A800071E0872F0895FC018281882319F48181F8
:101A90008823A9F02091A1015091A0018281618148
:101AA00070E04CE3249F90011124250F311D849F89
:101AB000C0011124860F911D281739070CF471E01D
:101AC000872F0895FB018281882319F4818188235F
:101AD000A9F02091A1015091A00182816181E0E0F3
:101AE0004CE3249F90011124250F311D849FC001D8
:101AF0001124860F911D821793070CF4E1E08E2FBD
:101B00000895FC01DB012091A1014091A001828197
:101B10005181FCE32F9F90011124240F311D8F9FD1
:101B2000C0011124850F911D2817390714F4E0E036
:101B300018C02091A1014091A00112968C9112979A
:101B400011965C91E0E02F9F90011124240F311D2C
:101B50008F9FC0011124850F911D821793070CF0F0
:101B6000E1E08E2F08950F93FC0164834383208767
:101B700007830F910895FC0127E022839EE1918362
:101B80008091B301863019F0873039F403C0228385
:101B90009183089588E082831182089502960E94BD
:101BA000220D089506960E94220D08950F931F930B
:101BB000DF93CF9300D000D0CDB7DEB78E010F5F9B
:101BC0001F4FC8010E94BB0DC8010E94220D0F903B
:101BD0000F900F900F90CF91DF911F910F9108956B
:101BE0001F93CF93DF93EC01162F89816817F1F1D2
:101BF0002091A1013091A00140919F018DB79EB726
:101C000008970FB6F8949EBF0FBE8DBFEDB7FEB715
:101C1000319684EF90E0ADB7BEB712969C938E9349
:101C200011972283138234831582468317820E9480
:101C300069110F900F90EDB7FEB7319686E091E0F5
:101C4000ADB7BEB712969C938E931197898182830C
:101C50001382148315820E94691119838DB79EB770
:101C600006960FB6F8949EBF0FBE8DBFDF91CF9141
:101C70001F9108950F931F938C012091A101E0EA19
:101C8000F1E0308142918DB79EB708970FB6F89476
:101C90009EBF0FBE8DBFEDB7FEB7319684EF90E0CB
:101CA000ADB7BEB712969C938E9311972283138281
:101CB00034831582468317820E9469110F900F901A
:101CC0000F900F90EDB7FEB7319686E291E0ADB779
:101CD000BEB712969C938E931197D8018C918283F4
:101CE00013820E94691128B381E090E0F80100801E
:101CF00002C0880F991F0A94E2F7282B28BB0F9087
:101D00000F900F900F901F910F9108950F931F93B5
:101D10008C012091A101E0EAF1E0308142918DB780
:101D20009EB708970FB6F8949EBF0FBE8DBFEDB754
:101D3000FEB7319684EF90E0ADB7BEB712969C9394
:101D40008E931197228313823483158246831782E0
:101D50000E9469110F900F900F900F90EDB7FEB792
:101D6000319683E391E0ADB7BEB712969C938E9304
:101D70001197D8018C91828313820E94691128B334
:101D800081E090E0F801008002C0880F991F0A945A
:101D9000E2F78095822388BB0F900F900F900F90F1
:101DA0001F910F910895FC0160830E94860E089593
:101DB0001F93CF93DF93EC01162F8B85861709F4C1
:101DC0004DC0613029F0613038F0623041F404C018
:101DD000CE010E943A0E03C0CE010E94860E2091D1
:101DE000A1013091A00140919F018DB79EB7089746
:101DF0000FB6F8949EBF0FBE8DBFEDB7FEB73196FC
:101E000084EF90E0ADB7BEB712969C938E93119776
:101E10002283138234831582468317820E946911BC
:101E2000EDB7FEB731968EE391E0ADB7BEB712962F
:101E30009C938E9311978881828313828B858483F0
:101E40001582168317820E9469111B878DB79EB772
:101E500008960FB6F8949EBF0FBE8DBFDF91CF914D
:101E60001F910895FC018181882371F0662329F078
:101E7000442371F4CF0161E004C0442349F0CF0151
:101E800062E00E94D80E0895CF0160E00E94D80E53
:101E900008951F93CF93DF93EC01162F623021F04A
:101EA000633030F4662331F4CE010E94860E02C006
:101EB0000E943A0E2091A1013091A00140919F0112
:101EC0008DB79EB708970FB6F8949EBF0FBE8DBF13
:101ED000EDB7FEB7319684EF90E0ADB7BEB712967E
:101EE0009C938E93119722831382348315824683A9
:101EF00017820E946911EDB7FEB731968CE591E02B
:101F0000ADB7BEB712969C938E931197888182834A
:101F100013828A8584831582168317820E94691131
:101F20001A878DB79EB708960FB6F8949EBF0FBE5E
:101F30008DBFDF91CF911F9108950F931F93CF9382
:101F4000DF93EC01162F042F8A85813091F08130C8
:101F500028F08230E9F0833049F51FC0CE010296A7
:101F60000E94220D882311F1CE0161E00E94490FE9
:101F700009C0CE0106960E94220D882319F0CE01D9
:101F800062E012C0CE01612F402F0E94320F0EC0BE
:101F9000222361F0CE0163E007C0CE010E94D60D7E
:101FA000882321F0CE0160E00E94490FDF91CF919C
:101FB0001F910F910895CF92DF92EF92FF920F93AE
:101FC0001F93DF93CF9300D000D0CDB7DEB78C0145
:101FD0002091A1013091A00140919F018DB79EB742
:101FE00008970FB6F8949EBF0FBE8DBFEDB7FEB732
:101FF000319684EF90E0ADB7BEB712969C938E9366
:1020000011972283138234831582468317820E949C
:1020100069110F900F900F900F90EDB7FEB73196AA
:102020008EE791E0ADB7BEB712969C938E93119751
:10203000D8018C91828313820E9469110F900F90B6
:102040000F900F907E010894E11CF11CC7010E94C3
:10205000BB0DC7010E94430D882319F0C80163E03E
:102060001BC082E0C82ED12CC00ED11EC701B60104
:102070000E94810D882319F0C80160E00DC0B801ED
:102080006A5F7F4FC6010E94810D882319F0C80145
:1020900061E002C0C80162E00E94490F0F900F90FA
:1020A0000F900F90CF91DF911F910F91FF90EF90C4
:1020B000DF90CF900895FC01148215820895FC01F1
:1020C00085810895FC0184810895CF93DF93EC010D
:1020D000888160E00E94110440E029813A818217E2
:1020E000930708F041E08E89882329F080E044239B
:1020F00009F481E0482F842FDF91CF910895CF9389
:10210000DF93EC010E9465109B818823A1F1992344
:10211000B1F02A853B854C855D858E819F81A885A0
:10212000B985281739074A075B0798F42F5F3F4F97
:102130004F4F5F4F2A873B874C875D870AC01A8ABB
:102140001B8A1C8A1D8A1A861B861C861D861D8278
:102150001C822A853B854C855D858E819F81A88563
:10216000B985281739074A075B0710F081E08C838F
:1021700081E08B8332C0992359F01A8A1B8A1C8A0A
:102180001D8A1A861B861C861D861D821C8215C010
:102190002A893B894C895D898E859F85A889B98963
:1021A000281739074A075B0740F42F5F3F4F4F4F0F
:1021B0005F4F2A8B3B8B4C8B5D8B2A893B894C89EB
:1021C0005D898E859F85A889B989281739074A07AF
:1021D0005B0710F081E08D831B82DF91CF91089522
:1021E000EF92FF920F931F93FC0172836183E6824B
:1021F000F7820087118726873787408B518B12869D
:10220000138614861586128A138A148A158A1482F4
:1022100015820E947F101F910F91FF90EF900895FB
:102220000F931F938C01FC016083468B0E94651005
:10223000F80183831F910F9108950F931F93CF93FC
:10224000DF938C01EB01009731F46115710519F4EE
:1022500020E030E038C081E090E06EE070E00E9465
:102260005B13FC019C01009771F180E88383209748
:1022700071F0D387C28781E883838091C9029091EE
:10228000CA02892B21F4F093CA02E093C902011516
:102290001105C9F011870087838182608383809153
:1022A000CB029091CC02892B71F4F093CC02E09395
:1022B000CB028091CD029091CE02892B21F4F09334
:1022C000CE02E093CD02C901DF91CF911F910F9112
:1022D0000895A0E0B0E0EFE6F1E10C943315FE01C3
:1022E0003596619171918091CB029091CC02AF01B2
:1022F0000E947E112096E2E00C944F15ABE0B0E016
:10230000E4E8F1E10C9423153C012B015A01FC0196
:1023100017821682838181FD03C06FEF7FEFC6C1F4
:102320009AE0892E1E010894211C311CF30123819F
:10233000F20123FD859123FF81912F01882309F468
:10234000B2C1853239F423FD859123FF81912F019C
:10235000853229F490E0B3010E949914E7CF982FB9
:10236000FF24EE249924FFE1FF15D0F09B3269F0A1
:102370009C3228F4903259F0933291F40EC09D3281
:1023800049F0903369F441E024C052E0F52A84E03A
:10239000F82A28C098E0F92A25C0E0E1FE2A22C0E8
:1023A000F7FC29C0892F80538A3070F4F6FE05C0EF
:1023B000989C902C1124980E15C0E89CE02C1124B8
:1023C000E80EF0E2FF2A0EC09E3229F4F6FC6BC143
:1023D00040E4F42A07C09C3619F450E8F52A02C0FC
:1023E000983649F4F20123FD959123FF91912F0135
:1023F000992309F0B8CF892F8554833018F0805283
:10240000833038F444E050E0A40EB51E5FE35983F6
:102410000FC0933631F0933779F0933509F056C0F9
:1024200020C0F5018081898342E050E0A40EB51EF2
:10243000610101E010E012C0F501C080D180F6FC1E
:1024400003C06FEF7FEF02C0692D70E042E050E003
:10245000A40EB51EC6010E948E148C015FE7F52202
:1024600014C0F501C080D180F6FC03C06FEF7FEF90
:1024700002C0692D70E042E050E0A40EB51EC60116
:102480000E947C148C0150E8F52AF3FE07C01AC0A4
:1024900080E290E0B3010E949914EA948E2D90E0BE
:1024A00008171907A8F30EC0F601F7FC8591F7FE8F
:1024B00081916F0190E0B3010E949914E110EA94B8
:1024C000015010400115110579F7EAC0943611F05A
:1024D000993669F5F7FE08C0F50120813181428106
:1024E000538184E090E00AC0F501808191819C01D4
:1024F000442737FD4095542F82E090E0A80EB91E86
:102500009FE6F92257FF09C05095409530952195D7
:102510003F4F4F4F5F4FE0E8FE2ACA01B901A101CA
:102520002AE030E00E94C514D82ED21840C095375A
:1025300029F41F2D1F7E2AE030E01DC01F2D197FBA
:102540009F3661F0903720F4983509F0ACC00FC089
:10255000903739F0983709F0A6C004C028E030E081
:102560000AC0106114FD146020E130E004C014FDC5
:10257000166020E132E017FF08C0F501608171812B
:102580008281938144E050E008C0F501808191810F
:10259000BC0180E090E042E050E0A40EB51EA10135
:1025A0000E94C514D82ED2188FE7F82EF122F6FE1D
:1025B0000BC05EEFF522D91438F4F4FE07C0F2FC2C
:1025C00005C08FEEF82202C01D2D01C0192DF4FEAA
:1025D0000DC0FE01ED0DF11D8081803319F499EEDF
:1025E000F92208C01F5FF2FE05C003C08F2D867858
:1025F00009F01F5F0F2DF3FC14C0F0FE0FC01E1575
:1026000010F09D2C0BC09D2C9E0C911A1E2D06C007
:1026100080E290E0B3010E9499141F5F1E15C0F381
:1026200004C01E1510F4E11A01C0EE2404FF0FC00F
:1026300080E390E0B3010E94991402FF1DC001FDE8
:1026400003C088E790E00EC088E590E00BC0802FC3
:10265000867891F001FF02C08BE201C080E2F7FCB6
:102660008DE290E0B3010E94991406C080E390E0EF
:10267000B3010E9499149A94D914C0F3DA94F10129
:10268000ED0DF11D808190E0B3010E949914DD20D1
:10269000A9F706C080E290E0B3010E949914EA9481
:1026A000EE20C1F743CEF30166817781CB012B96F3
:1026B000E2E10C943F150F931F93CF93DF93689F34
:1026C0008001699F100D789F100D1124C8010E9490
:1026D0007713EC01009729F060E070E0A8010E94F8
:1026E0008714CE01DF91CF911F910F910895CF9361
:1026F000DF93BC018230910510F462E070E0A0919C
:10270000D102B091D202ED01E0E0F0E040E050E013
:1027100021C0888199818617970769F48A819B81F6
:10272000309719F09383828304C09093D2028093F0
:10273000D102FE0134C06817790738F441155105FC
:1027400019F08417950708F4AC01FE018A819B817A
:102750009C01E9012097E9F641155105A9F1CA014B
:10276000861B970B049708F4BA01E0E0F0E02AC05A
:102770008D919C91119784179507F9F4641775074B
:1027800081F412968D919C911397309719F0938351
:10279000828304C09093D2028093D102FD013296CD
:1027A0004FC0CA01861B970BFD01E80FF91F61930B
:1027B000719302978D939C9343C0FD018281938115
:1027C0009C01D9011097A1F68091CF029091D0027F
:1027D000892B41F480919401909195019093D002BE
:1027E0008093CF0240919601509197014115510578
:1027F00041F44DB75EB78091920190919301481BCF
:10280000590B2091CF023091D00224173507B0F434
:10281000CA01821B930B8617970780F0AB014E5FAE
:102820005F4F8417950750F0420F531F5093D0020B
:102830004093CF02F9016193719302C0E0E0F0E0B0
:10284000CF01DF91CF910895CF93DF93009709F4E3
:1028500050C0EC0122971B821A82A091D102B09144
:10286000D202109709F140E050E0AC17BD0708F123
:10287000BB83AA83FE0121913191E20FF31FAE17B2
:10288000BF0779F48D919C911197280F391F2E5F06
:102890003F4F3983288312968D919C9113979B8388
:1028A0008A834115510571F4D093D202C093D102AD
:1028B00020C012968D919C911397AD01009711F055
:1028C000DC01D3CFFA01D383C28321913191E20F8E
:1028D000F31FCE17DF0769F488819981280F391F0C
:1028E0002E5F3F4FFA01318320838A819B8193833E
:1028F0008283DF91CF910895FC0105906150704073
:102900000110D8F7809590958E0F9F1F0895DC01D8
:1029100001C06D9341505040E0F70895FC016150B3
:10292000704001900110D8F7809590958E0F9F1FF1
:1029300008950F931F93CF93DF938C01EB018B814D
:1029400081FF1BC082FF0DC02E813F818C819D8144
:102950002817390764F4E881F9810193F983E88342
:1029600006C0E885F985802F0995892B31F48E8181
:102970009F8101969F838E8302C00FEF1FEFC801D6
:10298000DF91CF911F910F910895FA01AA27283066
:1029900051F1203181F1E8946F936E7F6E5F7F4F2C
:1029A0008F4F9F4FAF4FB1E03ED0B4E03CD0670FA8
:1029B000781F891F9A1FA11D680F791F8A1F911DFB
:1029C000A11D6A0F711D811D911DA11D20D009F44B
:1029D00068943F912AE0269F11243019305D31938D
:1029E000DEF6CF010895462F4770405D4193B3E076
:1029F0000FD0C9F7F6CF462F4F70405D4A3318F01D
:102A0000495D31FD4052419302D0A9F7EACFB4E0CD
:102A1000A6959795879577956795BA95C9F7009785
:102A20006105710508959B01AC010A2E0694579526
:102A3000479537952795BA95C9F7620F731F841F7D
:102A4000951FA01D08952F923F924F925F926F9213
:102A50007F928F929F92AF92BF92CF92DF92EF922E
:102A6000FF920F931F93CF93DF93CDB7DEB7CA1BAF
:102A7000DB0B0FB6F894DEBF0FBECDBF09942A88DA
:102A8000398848885F846E847D848C849B84AA8482
:102A9000B984C884DF80EE80FD800C811B81AA810F
:102AA000B981CE0FD11D0FB6F894DEBF0FBECDBFDA
:082AB000ED010895F894FFCF39
:102AB800252E32643A252E32643A252E3264202D92
:102AC80020005761746572696E67206F6C642564B5
:102AD800206E657725640D0A00506F776572206F48
:102AE8006E206F6C642564206E657725640D0A007E
:102AF800537461747573206F6C642564206E6577F8
:102B080025640D0A0054696D6572206D6F64756CDB
:102B1800207374617274696E67202E2E2E0A0D0060
:102B2800736F6E6E65206461206E657725640D0A8B
:102B380000736F6E6E6520776567206E6577256414
:102B48000D0A0001252E32643A252E32643A252ECC
:102B58003264202D20004175746F6D206D6F64659F
:102B6800206368616E6765206F6C642564206E65FC
:102B78007725640D0A00446F776E2070696E2564AE
:102B88000D0A0055702070696E25640D0A004175A4
:102B9800746F6D617469632070696E2564206F6C51
:102BA800642564206E657725640D0A00526F6C6198
:102BB8006465205374617475732070696E25642090
:102BC8006F6C642564206E657725640D0A00526F6A
:102BD8006C61646520496E69742070696E25640AA9
:082BE8000D002000D3020000E3
:00000001FF
