:100000000C94AB000C94C6000C94CD010C94C6006B
:100010000C94C6000C94C6000C94C6000C94C60048
:100020000C94C6000C9432040C94C6000C94B205D7
:100030000C94C6000C94C6000C94C6000C94C60028
:100040000C94C6000C94C6000C94C6000C94C60018
:100050000C94C60076616C75653A00726573756CB8
:10006000743A000D0A00747572626F206D6F6465DA
:100070003A000D0A00616E616C6F672064656C6107
:10008000793A000D0A007420646366207475726208
:100090006F206D6F6465203C743E2031303D646597
:1000A0006661756C742031203D20313078206661A6
:1000B000737465720064206465627567206C657690
:1000C000656C203C6C3E20303D6F666620313D0DF6
:1000D0000A00772077726974652076697274756199
:1000E0006C205265676973746572203C682C6C3EA5
:1000F000286164647265737329203C682C6C3E200F
:100100002876616C75652920652E67203035203092
:10011000300D0A0072207265616420766972747510
:10012000616C205265676973746572203C682C6C41
:100130003E20652E672E2030322028205249442947
:100140000D0A00756E6B6E6F776E20636F6D6D615B
:100150006E640D0A000011241FBECFE5D4E0DEBF9F
:10016000CDBF11E0A0E6B0E0ECEEFAE202C00590EF
:100170000D92A839B107D9F712E0A8E9B1E001C0A2
:100180001D92A33DB107E1F70C94CB0C0C94000039
:10019000982FF8948091980198238091980189274D
:1001A000809398017894892F99270895982FF8942F
:1001B0008091990198238927809399017894892FB8
:1001C00099270895982FF89480919A018095892312
:1001D0000E94C800992708950E94D6000E94C80076
:1001E0009927089526B3209530919A01232790915D
:1001F0009B019223909590939B0180919C01822377
:10020000892780939C0198232923932F92279093E9
:100210009A01922380919801892B8093980181E320
:1002200080939D0108958A3310F4805301C087554F
:100230008295807F6A3310F4605301C067556F70F8
:10024000862B99270895CF93982F92959F70C82F4A
:10025000CF709A3018F4892F805D02C0892F895A97
:100260000E946F05CA3018F48C2F805D02C08C2F5D
:10027000895A0E946F05CF910895CF9399278836A8
:10028000910509F457C08936910524F4813691050A
:10029000D9F15FC08437910561F18737910509F085
:1002A00058C00E942805C82F0E942805682F8C2F4F
:1002B0000E9413010E94230184E590E09F938F9395
:1002C0000E9419110E942805C82F0E942805682F36
:1002D0008C2F0E9413010E9423010F900F908BE539
:1002E00090E00E94910580E00E94230183E690E067
:1002F00032C00E9428050E94280586E690E00E94F0
:10030000910582E790E027C00E942805C82F0E942F
:100310002805682F8C2F0E9413010E94230185E776
:1003200090E00E949105809160000E94230183E883
:1003300090E011C086E890E00E94910585EB90E086
:100340000E94910582ED90E00E94910584E191E088
:1003500002C083E491E00E949105CF9108958AE064
:1003600080939E01E3EAF1E087E01192815087FFDC
:10037000FCCF88E01092AB011092AC011092B90151
:100380001092AE011092AD011092A2011092B8012C
:1003900085BF8BB780688BBF08951F920F920FB6F1
:1003A0000F9211242F933F934F935F936F938F93EB
:1003B0009F93EF93FF9385B760919E018830E1F59D
:1003C0008AEA689F900111248091AF019091B00159
:1003D00028173907F8F41092AC011092AB01E3EA48
:1003E000F1E087E01192815087FFFCCF9091B80136
:1003F000913071F48CE380939F018091B1018093DF
:10040000A0018091B2018093A1019093A20102C04A
:100410008FE682BF80E5689F900111248091AF0133
:100420009091B0012817390710F48CE085BF109225
:10043000B0011092AF011FC1E0E0F0E085E0689FDD
:10044000802D1124282F33278091AF019091B00186
:100450002817390710F4E1E0F0E040E050E08DE0CB
:10046000689F802D1124282F33278091AF01909110
:10047000B0018217930710F441E050E08E2F8423DF
:1004800049F08091AC018B3308F4CCC081E08093BB
:10049000B901E6C0E0E0F0E08FE0689F802D112414
:1004A000282F33278091AF019091B0012817390789
:1004B00010F4E1E0F0E040E050E087E1689F802D3B
:1004C0001124282F33278091AF019091B00182171A
:1004D000930710F441E050E09E2F942309F4A8C044
:1004E0008091AC018B3320F082E08093B9019AC0F7
:1004F0008091AC018A3321F481E08093AA0192C0FB
:100500008091AC01823388F08091AC019927C29729
:1005100021E030E002C0220F331F8A95E2F780917C
:10052000A901822B8093A9017DC08091AC018D32FD
:1005300088F08091AC0199278D9721E030E002C0CE
:10054000220F331F8A95E2F78091A801822B8093B6
:10055000A80168C08091AC018A3288F08091AC011A
:1005600099278A9721E030E002C0220F331F8A9535
:10057000E2F78091A701822B8093A70153C080915D
:10058000AC01843288F08091AC019927849721E0F6
:1005900030E002C0220F331F8A95E2F78091A60156
:1005A000822B8093A6013EC08091AC018D3188F0F2
:1005B0008091AC0199274D9721E030E002C0220FD5
:1005C000331F8A95E2F78091A501822B8093A501C4
:1005D00029C08091AC01853188F08091AC019927C8
:1005E000459721E030E002C0220F331F8A95E2F7E1
:1005F0008091A401822B8093A40114C08091AC014E
:100600008F3080F08091AC0199270F9721E030E086
:1006100002C0220F331F8A95E2F78091A301822B3B
:100620008093A3018091AC018F5F8093AC0118C0CF
:1006300083E08093B9019093AC019093AB01E3EA1E
:10064000F1E087E01192815087FFFCCF8091AF01EC
:100650009091B0019093BB018093BA011092A201D6
:100660008091AC018B3318F081E08093B70188E072
:1006700085BF1092AB01FF91EF919F918F916F9188
:100680005F914F913F912F910F900FBE0F901F9050
:100690001895282F90E0222329F0822F8170982727
:1006A0002695F9CF892F99270895482F282F33278A
:1006B00064E0369527956A95E1F7C90153E0880F04
:1006C000991F5A95E1F7820F931F820F4F70840F85
:1006D000992708951F93CF931091B701113009F016
:1006E0008DC088E08093B9011092B7011092B801D3
:1006F000C091A401CC1FCC27CC1F8091A4018F777F
:100700000E944903282F33278C2F99272817390750
:1007100011F084E054C08091A4018F770E945503AA
:100720008093B1018091A501992780749070A6E013
:1007300095958795AA95E1F7C82F8091A5018F73AC
:100740000E944903282F33278C2F99272817390710
:1007500011F085E034C08091A5018F730E9455038C
:100760008093B2018091A6010E944903C82F809115
:10077000A7010E9449039927880F991FC82B8091D0
:10078000A8010E9449039927880F991F880F991F74
:10079000C82B8091A9010E944903992773E0880F13
:1007A000991F7A95E1F78C2B0E9449039091AA0139
:1007B000292F332799272817390721F086E08093BE
:1007C000B9011CC08091A6010E9455038093B40119
:1007D0008091A7010E9455038093B3018091A801E5
:1007E0000E9455038093B5018091A9010E94550391
:1007F0008093B6011092B9011093B801CF911F9167
:10080000089580E090E00895982F40E050E083E85C
:1008100086B997B93E9A369A86B1992766E0969539
:1008200087956A95E1F7817090708823A9F7282F42
:10083000369A86B1992736E0969587953A95E1F7ED
:10084000817090708823A9F784B195B1480F591F22
:100850002F5F243068F33798CA019695879596954F
:10086000879508951F920F920FB60F9211242F9320
:100870003F934F935F936F937F938F939F93AF9328
:10088000BF93EF93FF938FE682BFE091C501F09194
:10089000C601309709F009958091CB019091CC0168
:1008A00001979093CC018093CB018091CB019091E3
:1008B000CC01892B59F48091C20184608093C201DC
:1008C00081E090E09093CC018093CB018091CD01A9
:1008D0009091CE0101979093CE018093CD018091AC
:1008E000CD019091CE01892B59F48091C201826093
:1008F0008093C20184E690E09093CE018093CD0175
:10090000FF91EF91BF91AF919F918F917F916F91E7
:100910005F914F913F912F910F900FBE0F901F90BD
:10092000189589B7816089BF8FE682BF85E083BF54
:1009300080E288BF81E090E09093CE018093CD016A
:100940009093CC018093CB011092C2010895E09165
:10095000C901F091CA01309709F009958091C2014F
:100960008D7F8093C2010895E091C701F091C80185
:10097000309709F009958091C2018B7F8093C20165
:1009800008959093CA018093C9010E94910408952B
:100990009093C8018093C7010E9491040895909399
:1009A000C1018093C00108959093C4018093C30155
:1009B00008959093C6018093C50108950E94120581
:1009C000882369F00E943F058D3011F08A3039F498
:1009D0000E942805E091C301F091C4010995089592
:1009E0008091C20199279695879581709070882390
:1009F00011F00E94A7048091C201992796958795CE
:100A00009695879581709070882311F00E94B404A8
:100A10000E94DE04E091C001F091C101309701F322
:100A20000995DECF40E050E08091F001282F332778
:100A30008091EF0199272817390711F041E050E024
:100A4000CA01089580E08093EF018093F00108953A
:100A50008091F001282F33278091EF0199272817E3
:100A60003907B1F38091EF018F5F8F718093EF01B0
:100A7000E82FFF27E153FE4F808199270895809149
:100A8000F001282F33278091EF0199272817390784
:100A900019F480E090E008958091F001E82FFF279D
:100AA000E153FE4F8081992708950F931F93CF93B1
:100AB0008C01C62F662339F00E942805F801819326
:100AC0008F01C150C9F7CF911F910F9108950E94D6
:100AD00012058823E1F30E94280599270895482FDD
:100AE00021E030E08BB1992755E0969587955A958E
:100AF000E1F78227932780FDF5CF4CB90895482F61
:100B000021E030E08BB1992765E0969587956A954D
:100B1000E1F78227932780FDF5CF4CB980E090E084
:100B20000895CF93DF93EC018881882341F060E042
:100B300070E089910E947F0588818823C1F7DF9149
:100B4000CF91089589B9539A549A579A80E0809327
:100B5000EF018093F00160E070E08FE795E00E9484
:100B6000D21008951F920F920FB60F9211242F9357
:100B70008F939F93EF93FF939CB18091F0018F5FD0
:100B80008F718093F0012091EF01EFECF1E0E80F1D
:100B9000F11D9083FF91EF919F918F912F910F9075
:100BA0000FBE0F901F90189511B881E480B9089579
:100BB000982F84EA86BF06B607FEFDCF81B1887FF5
:100BC000883011F0803151F493B984E886BF06B6BD
:100BD00007FEFDCF81B1887F883119F081E090E078
:100BE000089580E090E00895282F54EA44E834E91D
:100BF00056BF06B607FEFDCF81B1887F883011F061
:100C00008031B1F723B946BF06B607FEFDCF81B1EB
:100C1000887F803211F0883569F436BF86B799270E
:100C200064E0969587956A95E1F7817090708823C6
:100C3000A9F7DECF08950E94D8059927089584E981
:100C400086BF86B7992774E0969587957A95E1F7E0
:100C5000817090708823A9F7089583B984E886BFCE
:100C600006B607FEFDCF81B1887F883219F081E09A
:100C700090E0089580E090E0089584EC86BF06B689
:100C800007FEFDCF83B19927089584E886BF06B695
:100C900007FEFDCF83B199270895959A08959598F9
:100CA0000895CF93DF93C0E0D0E004C02196CB300D
:100CB000D105B0F48AE10E94D8058823B9F784E50C
:100CC0000E942D068091A1010E942D068091A00115
:100CD0000E942D0680919F010E942D060E941F06F2
:100CE000DF91CF910895CF93DF93C0E0D0E004C0AF
:100CF0002196CB30D105D0F48AE10E94D805882313
:100D0000B9F784E40E942D068091B4010E942D065B
:100D10008091B3010E942D068091B5010E942D069D
:100D20008091B6010E942D060E941F06DF91CF918F
:100D30000895CF93DF93C0E0D0E004C02196CB307C
:100D4000D105B0F48AE10E94D8058823B9F786E47A
:100D50000E942D068091B8010E942D068091AC0161
:100D60000E942D068091B9010E942D060E941F0647
:100D7000DF91CF9108951F93CF93DF93C0E0D0E030
:100D800005C0219683E0C93ED80710F58AE10E948C
:100D9000D805182F8823A9F783E50E942D06809196
:100DA000C5020E942D06812F0E942D068091C0024F
:100DB0000E942D068091BF020E942D068091AA02FA
:100DC0000E942D068091A9020E942D060E941F06F6
:100DD000DF91CF911F910895CF93DF93C0E0D0E0D2
:100DE00005C0219683E0C93ED807D0F48AE10E946D
:100DF000D8058823B1F787E50E942D068091BC02B3
:100E00000E942D068091BB020E942D068091A602B1
:100E10000E942D068091A5020E942D060E941F06A9
:100E2000DF91CF910895CF93DF93C0E0D0E005C06C
:100E3000219683E0C93ED80790F48AE10E94D80544
:100E40008823B1F782E50E942D068091A2020E94BC
:100E50002D068091A1020E942D060E941F06DF919F
:100E6000CF91089580919E02992782309105B9F023
:100E7000833091052CF4009761F0019769F01AC056
:100E80008430910591F08430910564F0059781F0EC
:100E900011C00E9451060EC00E9473060BC00E9432
:100EA000990608C00E94BB0605C00E94130702C035
:100EB0000E94EC0680919E028F5F80939E0280913B
:100EC0009E02863011F410929E020895FF920F93B5
:100ED0001F93CF93DF930BE212E034E0F32EC1E2D5
:100EE000D2E0C8010E940910882371F081E090E0EF
:100EF000088002C0880F991F0A94E2F7982F9095F6
:100F000085B3892385BB0BC081E090E0088002C0D7
:100F1000880F991F0A94E2F725B3282B25BBFA9472
:100F2000095E1F4F2296F7FEDCCF80B3992723E09E
:100F3000969587952A95E1F781709070882311F036
:100F4000AD9A01C0AD98DF91CF911F910F91FF90A5
:100F50000895FC01DB0160E070E08091A1015CE399
:100F6000859F900111248091A001280F311D82815D
:100F7000859FC00111244181840F911D28173907D5
:100F8000B4F08091A101859F900111248091A0016E
:100F9000280F311DFD018281859FC00111244181EF
:100FA000840F911D8217930714F061E070E0CB016C
:100FB000089526E02093A2028FE08093A102109270
:100FC000A0028091B501992786309105D1F0873034
:100FD000910564F483309105B9F084309105A4F053
:100FE0008430910571F0059761F00EC0893091054C
:100FF00041F08A30910544F48730910511F008974B
:1010000019F42093A202089589E18093A202089521
:101010008091B50199278630910551F1873091056E
:1010200094F48330910501F18430910534F48130DA
:10103000910521F10297C1F021C084309105E1F0C2
:101040000597C1F01BC089309105B1F08A30910538
:1010500034F48730910571F0089761F00FC08B3040
:10106000910561F00B9754F481E18093AE020895ED
:1010700085E1FBCF84E1F9CF83E1F7CF80E1F5CFC4
:101080000E94080868EA72E08CEA92E00E94A907D0
:10109000992708950E94D90760EA72E0CB010E9467
:1010A000A90799270895EF92FF920F931F93CF936B
:1010B000DF93CDB7DEB728970FB6F894DEBF0FBE2B
:1010C000CDBF7E010894E11CF11C1B82F701118247
:1010D00087E18F838BE38E8384EA92E00E94180E6F
:1010E00000E010E0BE016B5F7F4F8EEB92E00E944C
:1010F000A907882339F464EA72E0C7010E94A907AE
:10110000882311F001E010E0C80128960FB6F8948A
:10111000DEBF0FBECDBFDF91CF911F910F91FF902A
:10112000EF9008951F93CF93DF93182F8FE090E0F7
:101130009093B5028093B402C12FDD27209721F44C
:101140009093B5028093B40280919F0199279F9359
:101150008F938091A00199279F938F938091A101F4
:1011600099279F938F9381E690E09F938F930E949E
:101170001911DF93CF938091C70299279F938F9383
:1011800083E790E09F938F930E9419111093C702F9
:101190008DB79EB70E960FB6F8949EBF0FBE8DBF4B
:1011A000DF91CF911F9108951F93CF93DF93182F55
:1011B000C82FDD27209721F0C130D10539F00DC0AF
:1011C000D093B302C093B202949807C080EE9EE21F
:1011D0009093B3028093B202949A80919F019927D1
:1011E0009F938F938091A00199279F938F938091D4
:1011F000A10199279F938F9381E690E09F938F930E
:101200000E941911DF93CF938091C60299279F9373
:101210008F938AE890E09F938F930E941911109307
:10122000C6028DB79EB70E960FB6F8949EBF0FBE3E
:101230008DBFDF91CF911F910895EF92FF920F9391
:101240001F93CF93DF93E82E082F1127013011054C
:1012500071F00230110524F40115110581F15BC014
:101260000230110579F10330110599F154C0109243
:10127000C4020E944F060E94D9070E94080884EA0F
:1012800092E00E94180E8091B3018093B102809188
:10129000B002882309F43FC01092B002C1EFD1E040
:1012A00043E0F42E6091C802CE010E94640FCE018B
:1012B0000E947F0EFA942C96F7FEF4CF2CC00E9469
:1012C0004F0629C00E94080884EA92E00E94180E86
:1012D00022C08091A1018093C0028091A0018093DF
:1012E000BF0280919F018093BE020E94080884EA99
:1012F00092E00E94180E0E944D061092C40280ECEB
:1013000094EDA1E0B0E08093B6029093B702A09371
:10131000B802B093B90280919F0199279F938F9350
:101320008091A00199279F938F938091A101992784
:101330009F938F9381E690E09F938F930E94191162
:101340001F930F938091C50299279F938F9381EAF2
:1013500090E09F938F930E941911E092C5028DB780
:101360009EB70E960FB6F8949EBF0FBE8DBFDF914D
:10137000CF911F910F91FF90EF90089580919F0161
:101380008F5F80939F0180919F018C33E0F01092DA
:101390009F019091A2019923B1F48091A0018F5FE8
:1013A0008093A0018091A0018C3368F08091A1010D
:1013B0008F5F8093A1019093A0018091A10188315A
:1013C00010F09093A1018091B102282F33278091D2
:1013D000B30199272817390751F08091B301809301
:1013E000B1020E94080884EA92E00E94180E089553
:1013F000892B49F0672B21F0979882B390E408C0BD
:10140000979896980895672B31F0969A82B390E852
:10141000892782BB0895969A979A0895CF92DF9272
:10142000EF92FF920F931F93CF93DF93C090C80268
:1014300086B3992764E0969587956A95E1F761E010
:1014400070E086279727862397238093C802809190
:10145000AF019091B0010A969093B0018093AF01D3
:101460008091AF019091B0018958934110F0109292
:10147000A2018091C7028823D9F48091B40290918F
:10148000B50201979093B5028093B4028091B402A3
:101490009091B502892B99F48091C80299270E94F6
:1014A000F8098FE090E09093B5028093B40207C0F2
:1014B0008091C80260E070E099270E94F809CBE2B1
:1014C000D2E014E0CE010E9426101150679617FF5B
:1014D000F9CF0E946A038091C6029927009719F0FC
:1014E000019739F018C00E944A088823A1F081E0D2
:1014F00010C08091B2029091B30201979093B30211
:101500008093B2028091B2029091B302892B19F4B8
:1015100080E00E94D4080E9466078091C502992746
:101520008130910561F0823091051CF4892B69F0BE
:1015300020C08230910571F00397A1F01AC00E947B
:1015400040088823B1F082E012C08091A201882374
:1015500081F00CC08BE292E00E94CA10882349F00F
:1015600083E005C00E944008882319F481E00E94AE
:101570001D098091B6029091B702A091B802B09176
:10158000B9020097A105B10551F18091B602909181
:10159000B702A091B802B091B9020197A109B109AF
:1015A0008093B6029093B702A093B802B093B902A9
:1015B0008091B6029091B702A091B802B091B902A1
:1015C0000097A105B10559F481E08093C402809190
:1015D000B2018093BC028091B1018093BB028091E3
:1015E000C702882341F480E20E94C800882319F0D2
:1015F00081E00E9492088091C502882309F4A3C06B
:10160000C0E082E492E00E94CE10882329F489E5AC
:1016100092E00E94CE108111C1E0DD24CC2341F084
:1016200080E792E00E94CE10882311F051E0D52E81
:1016300000E082E492E00E94CA10882331F089E53C
:1016400092E00E94CA10811101E08091C3029927A3
:10165000CD2DDD278C179D0739F180919F019927AA
:101660009F938F938091A00199279F938F9380914F
:10167000A10199279F938F9381E690E09F938F9389
:101680000E941911DF93CF9386EB90E09F938F9385
:101690000E941911D092C3028DB79EB70C960FB657
:1016A000F8949EBF0FBE8DBF8091C2029927C02FB4
:1016B000DD278C179D0739F180919F0199279F9312
:1016C0008F938091A00199279F938F938091A1017F
:1016D00099279F938F9381E690E09F938F930E9429
:1016E0001911DF93CF9387EC90E09F938F930E9423
:1016F00019110093C2028DB79EB70C960FB6F894DD
:101700009EBF0FBE8DBFC1EFD1E07E0113E02C2D37
:1017100033276091C802862F99272817390719F0B7
:10172000C7010E94640F2091C402402F6D2DCE018D
:101730000E94C80F11508CE090E0E80EF91EC80F0F
:10174000D91F17FFE4CF80919F028F5F80939F0284
:1017500080919F02803120F010929F020E943207F8
:10176000DF91CF911F910F91FF90EF90DF90CF907D
:1017700008950895DF92EF92FF920F931F93A1E0D7
:10178000DA2ED092B00240E067E082E492E00E945C
:10179000B810F0E6EF2EFAEEFF2E012D112D20E805
:1017A00039EA43E050E068E572E082E492E00E94AA
:1017B000971040E066E089E592E00E94B81020E8CA
:1017C00039EA43E050E068E572E089E592E00E9482
:1017D000971040E064E080E792E00E94B810A80112
:1017E000970163EA72E080E792E00E94971040E080
:1017F00062E08BE292E00E94B810A801970164EFCA
:1018000071E08BE292E00E9497104D2D63E087E833
:1018100092E00E94B810EE24FF248701A8019701EE
:1018200064EF71E087E892E00E94971085B380939F
:10183000240287E08093230285B38093260286E00A
:101840008093250285B38093280294E09093270229
:1018500085B38093220282E08093210285B3809336
:101860002A0283E08093290241E050E0E1E2F2E0C5
:10187000808132969A0102C0220F331F8A95E2F7C7
:1018800084B3822B84BB915097FFF2CFE0E1EE2E20
:10189000E092AE021092AC021092AD0287E180930A
:1018A000AA027EE1F72EF092A9021092A80286E029
:1018B0008093A602F092A5021092A4028093A20245
:1018C0001FE01093A1021092A00280E00E941D0967
:1018D00080E00E94920880E00E94D4080E94AF013C
:1018E00060E081EF91E00E946E0D00E02EE0402F5D
:1018F00068E081EF91E00E94100E61E08DEF91E0D1
:101900000E946E0D0F2D212F40E0612F8DEF91E091
:101910000E94100E62E089E092E00E946E0D00E0ED
:1019200024E1402F6E2D89E092E00E94100E63E0CA
:1019300085E192E00E946E0D24E14F2D63E185E187
:1019400092E00E94100E1F910F91FF90EF90DF9098
:10195000089541E050E094E0E1E2F2E080813296C7
:101960009A0102C0220F331F8A95E2F784B3822BBB
:1019700084BB915097FFF2CFBC988D9A87B38F604C
:1019800087BB8B98939AA59A81B3806C81BBBD98D5
:10199000C59A8C9A0895CFE5D4E0DEBFCDBF87E02D
:1019A00090E00E94A2050E94A90C0E94D4050E940A
:1019B000BA0B8EEB99E00E94C1048EE09AE00E947F
:1019C000C80482EF90E00E94D9048DE391E00E9468
:1019D000D404789489ED90E09F938F930E9419111D
:1019E0000E94F0040F900F9080E090E00C94751529
:1019F0000F931F938C0180919F0199279F938F9341
:101A00008091A00199279F938F938091A10199279D
:101A10009F938F9384EF90E09F938F930E9419116F
:101A2000F801808199279F938F9386E091E09F939F
:101A30008F930E94191181E090E0F801008002C0AC
:101A4000880F991F0A94E2F7982F909588B38923FD
:101A500088BB8DB79EB70C960FB6F8949EBF0FBE8D
:101A60008DBF1F910F9108950F931F938C0180914B
:101A70009F0199279F938F938091A00199279F930E
:101A80008F938091A10199279F938F9384EF90E08A
:101A90009F938F930E941911F801808199279F933A
:101AA0008F9381E191E09F938F930E94191181E0C0
:101AB00090E0F801008002C0880F991F0A94E2F7B5
:101AC00028B3282B28BB8DB79EB70C960FB6F89479
:101AD0009EBF0FBE8DBF1F910F910895FC016083C3
:101AE000CF010E94F80C0895FC018281882319F42B
:101AF00081818823D1F060E070E08091A1019CE3B6
:101B0000899F900111248091A001280F311D8281AD
:101B1000899FC00111244181840F911D2817390725
:101B200011F461E070E0CB01089580E090E0089549
:101B3000FC018281882319F481818823D1F060E03F
:101B400070E08091A1019CE3899F90011124809114
:101B5000A001280F311D8281899FC001112441817C
:101B6000840F911D2817390714F461E070E0CB0150
:101B7000089581E090E00895FB018281882319F4A3
:101B800081818823D1F060E070E08091A1019CE325
:101B9000899F900111248091A001280F311D82811D
:101BA000899FC00111244181840F911D82179307E1
:101BB00014F461E070E0CB01089581E090E00895B5
:101BC000FC01DB0160E070E08091A1015CE3859F96
:101BD000900111248091A001280F311D8281859FE1
:101BE000C00111244181840F911D28173907B4F0D9
:101BF0008091A101859F900111248091A001280F5F
:101C0000311DFD018281859FC00111244181840F16
:101C1000911D8217930714F061E070E0CB010895E5
:101C20000F93FC0164834383208707830F910895FA
:101C3000FC0127E0228311828091B301992786302D
:101C4000910519F0079729F0089522838EE1818389
:101C5000089588E0828311820895FF920F931F9365
:101C6000CF93DF938C01F62EC62FDD27C230D1052E
:101C700051F0C330D1051CF4209729F00AC0C330BD
:101C8000D10529F006C0C8010E94F80C02C00E94CC
:101C9000340D80919F0199279F938F938091A0018C
:101CA00099279F938F938091A10199279F938F9359
:101CB00084EF90E09F938F930E941911DF93CF934D
:101CC000F801828599279F938F93808199279F930D
:101CD0008F938EE191E09F938F930E941911F801E9
:101CE000F2868DB79EB740960FB6F8949EBF0FBE92
:101CF0008DBFDF91CF911F910F91FF900895DF92DB
:101D0000EF92FF920F931F93CF93DF93CDB7DEB780
:101D100024970FB6F894DEBF0FBECDBF8C01809123
:101D20009F0199279F938F938091A00199279F935B
:101D30008F938091A10199279F938F9384EF90E0D7
:101D40009F938F930E941911F801808199279F9387
:101D50008F9380E491E09F938F930E941911CE019D
:101D600001960E94180ECE0101960E94980DD82E61
:101D70008DB79EB70C960FB6F8949EBF0FBE8DBF61
:101D8000DD2011F063E019C082E0E82EF12CE00EB6
:101D9000F11EB701CE0101960E94E00D882311F0DB
:101DA0006D2D0BC0C8010696BC01C7010E94E00D55
:101DB000882311F061E001C062E0C8010E942D0E8D
:101DC00024960FB6F894DEBF0FBECDBFDF91CF9142
:101DD0001F910F91FF90EF90DF900895FF920F9366
:101DE0001F93CF93DF93EC01F62E8B859927062F57
:101DF00011278017910709F443C00130110559F0EC
:101E00000230110524F40115110549F00BC0023010
:101E1000110529F007C0CE010E94340D03C0CE0188
:101E20000E94F80C80919F0199279F938F93809136
:101E3000A00199279F938F938091A10199279F9348
:101E40008F9384EF90E09F938F930E9419111F93BB
:101E50000F938B8599279F938F93888199279F93C1
:101E60008F9384E591E09F938F930E941911FB86D5
:101E70008DB79EB740960FB6F8949EBF0FBE8DBF2C
:101E8000DF91CF911F910F91FF9008950F931F93B2
:101E9000CF93DF93EC01162F042F6981662361F045
:101EA000112329F0442319F461E00E94EE0E11235E
:101EB00031F4002321F062E0CE010E94EE0EDF91AA
:101EC000CF911F910F910895FF920F931F93CF937E
:101ED000DF93EC01F62E062F112789819927081729
:101EE000190751F180919F0199279F938F938091BA
:101EF000A00199279F938F938091A10199279F9388
:101F00008F9384EF90E09F938F930E9419111F93FA
:101F10000F93898199279F938F9382E791E09F93F5
:101F20008F930E941911F9828DB79EB70E960FB646
:101F3000F8949EBF0FBE8DBFDF91CF911F910F917F
:101F4000FF90089502960E94740D992708950696B1
:101F50000E94740D99270895CF93DF93CDB7DEB714
:101F600024970FB6F894DEBF0FBECDBFCE01019609
:101F70000E94180ECE0101960E94740D9927249696
:101F80000FB6F894DEBF0FBECDBFDF91CF9108959D
:101F90000F931F93CF93DF93EC01062F142F8A85A5
:101FA000992781309105B1F0823091051CF4892B7D
:101FB00039F02AC082309105D1F00397E1F024C0B6
:101FC000CE010E94A20F8823F9F061E0CE010E94A9
:101FD0002D0E07C0CE010E94A70F882311F062E0EA
:101FE00010C0412F602FCE010E94460F0DC022234A
:101FF00059F063E006C0CE010E94AC0F882321F0A7
:1020000060E0CE010E942D0EDF91CF911F910F91C4
:1020100008951F93CF93DF93EC0110E0612F888127
:102020000E94040429813A818217930708F011E085
:102030008E89882329F080E0112309F481E0182F8C
:10204000812F9927DF91CF911F910895CF93DF932F
:10205000EC010E9409109B818823A1F19923B1F022
:102060002A853B854C855D858E819F81A885B985B4
:10207000281739074A075B0798F42F5F3F4F4F4FE8
:102080005F4F2A873B874C875D870AC01A8A1B8A65
:102090001C8A1D8A1A861B861C861D869D839C832E
:1020A0002A853B854C855D858E819F81A885B98574
:1020B000281739074A075B0710F081E08C8381E01D
:1020C0008B8332C0992359F01A8A1B8A1C8A1D8A75
:1020D0001A861B861C861D868D838C8315C02A89D3
:1020E0003B894C895D898E859F85A889B989281788
:1020F00039074A075B0740F42F5F3F4F4F4F5F4F51
:102100002A8B3B8B4C8B5D8B2A893B894C895D8963
:102110008E859F85A889B989281739074A075B07E3
:1021200010F081E08D831B82DF91CF910895EF92B3
:10213000FF920F931F93FC0172836183E682F78203
:102140000087118726873787408B518B128613862D
:1021500014861586128A138A148A158A14821582A7
:10216000CF010E9426101F910F91FF90EF900895CC
:102170000F931F938C01F8016083468BC8010E9466
:102180000910F80183831F910F910895FC011482B7
:1021900015820895FC01858199270895FC018481A9
:1021A000992708950F931F93CF93DF938C01EB0131
:1021B000009711F4672BC1F16EE070E081E090E0D0
:1021C0000E94EB13FC01892B71F180E88383209737
:1021D00071F0D387C28781E883838091C90290918F
:1021E000CA02892B21F4F093CA02E093C9020115B7
:1021F0001105C9F0118700878381826083838091F4
:10220000CB029091CC02892B71F4F093CC02E09335
:10221000CB028091CD029091CE02892B21F4F093D4
:10222000CE02E093CD02CF01DF91CF911F910F91AC
:102230000895CF93DF93CDB7DEB7E5E0F0E0EC0F84
:10224000FD1F81919191AF01BC018091CB029091D2
:10225000CC020E942E11DF91CF9108952F923F92D0
:102260004F925F926F927F928F929F92AF92BF92A6
:10227000CF92DF92EF92FF920F931F93CF93DF9352
:10228000CDB7DEB762970FB6F894DEBF0FBECDBFF5
:10229000EE24FF2487011C017E876D872A01CC2450
:1022A000DD24FC01D782C682838181FD68C28FEF65
:1022B0009FEF78C28D859E8501969E878D87C0FE93
:1022C0004BC28F8580538A30D0F49F85903339F488
:1022D000662029F4C3FC03C0E0E0F1E08DC08AE091
:1022E000689E602C1124FF856F0E20ED620E67FE44
:1022F00002C05FE7652EC3FC42C2762C40C2C3FE1B
:1023000004C0662011F441E0642EEF858E2F9927DA
:1023100087FD9095883691058CF5853691050CF0F2
:102320006EC08335910509F493C084359105CCF4D2
:102330008B32910509F449C08C3291054CF48032FE
:10234000910509F446C08332910509F44AC0FEC1E3
:102350008D32910509F440C08E32910509F444C0D4
:10236000F5C18336910509F450C0843691050CF00F
:102370008AC08835910509F4BCC0E8C18037910551
:1023800009F4B1C08137910584F48C36910591F13F
:102390008D3691052CF48936910509F474C0D6C1A7
:1023A0008F36910509F49CC0D1C18537910509F498
:1023B000A2C08637910524F48337910571F1C6C117
:1023C0008837910509F495C0C1C180E190E0C82A21
:1023D000D92AE0E2F0E010C080E890E0C82AD92ACB
:1023E000CEC1E0E4F0E008C088E090E0C82AD92A35
:1023F0006624C5C1E4E0F0E0CE2ADF2AC0C13FE395
:10240000E32E7A94F3E6FF873CC1F20182E090E08C
:10241000480E591EE0807A9434C1F20182E090E0C7
:10242000480E591EA081B1817D01C3FE09C0862DD1
:10243000992787FD9095BC01CD010E941B151FC0F7
:10244000FD0101900020E9F73197EA1BE88B18C0E5
:10245000F20182E090E0480E591E0190F081E02DDB
:102460007F01C3FE09C0862D992787FD9095BC0189
:10247000CF010E94061503C0CF010E94FD14888B76
:102480009889791AFEC0C2FE0AC0F20184E090E089
:10249000480E591E20813181428153810CC0F201C6
:1024A00082E090E0480E591E808191819C01442772
:1024B00037FD4095542F79018A0157FF0CC0E2E0A7
:1024C000F0E0CE2ADF2A10950095F094E094E11C0C
:1024D000F11C011D111D8FEB9FEFC822D92227C0CF
:1024E00098E0988B08C0E0E4F0E0CE2ADF2AF8E715
:1024F000FF8720E1288BC2FE0AC0F20184E090E051
:10250000480E591E20813181428153810AC0F20157
:1025100082E090E0480E591E808191819C01442701
:10252000552779018A01EFECFFEFCE22DF22CE01A1
:1025300001969A8B898B9889892E9924AA24BB2489
:10254000C801B701A50194010E945315DC01CB011C
:10255000E989FA8980838A3024F0FF858F0F8152C0
:1025600001C0805DE989FA898193FA8BE98BC80102
:10257000B701A50194010E94531579018A01211523
:10258000310541055105E1F6E98881E090E08C0FC5
:102590009D1FE81AC60182739070892B09F07A9406
:1025A000C6FE0DC0872D992787FD9095E889E031FB
:1025B00021F42EEF722E780E02C0782E7A94C3FE8C
:1025C0000FC0262D332727FD30958E2D9927821792
:1025D00093072CF087EF9FEFC822D92201C06E1815
:1025E000C3FE02C0761801C07E18C60180789170C3
:1025F000892B51F4872D7A94181634F4B10180E2B6
:1026000090E00E942615F6CFC1FE04C0B1018DE214
:1026100090E00BC0C4FE04C0B1018BE290E005C0A5
:10262000C5FE05C0B10180E290E00E942615C6FEFD
:1026300010C0B10180E390E00E9426159889903186
:1026400041F4B101EF858E2F992787FD90950E9467
:102650002615D0FE0AC0872D7A94181634F4B101DD
:1026600080E390E00E942615F6CFC3FE0AC0862DB7
:102670006A94181634F4B10180E390E00E942615A4
:10268000F6CF90E8B92EBC2051F4872D7A94181615
:1026900034F4B10180E290E00E942615F6CFFF8568
:1026A000F33641F48E2DB101992787FD90950E9454
:1026B000261540C02F852337B1F488898150888B37
:1026C0008F3FC1F1F70180810894E11CF11CB10139
:1026D000992787FD90950E94261598899150988B8F
:1026E0009F3F81F727C0EF85E33579F4F889F150F2
:1026F000F88BFF3FF9F0F7018491B10199270E940F
:1027000026150894E11CF11CF1CF6E010894C11C40
:10271000D11C89899A898C159D0561F0E989FA890E
:102720008291FA8BE98BB101992787FD90950E94E0
:102730002615EFCFBB2069F0872D7A9418164CF43C
:10274000B10180E290E00E942615F6CFB1010E940F
:102750002615CC24DD2413C09F85953241F481E0F9
:10276000C82ED12C6624762CEAE0E88B08C0B10193
:10277000FF858F2F992787FD90950E942615F101DF
:10278000838183FF04C0ED85FE85F49103C0ED8550
:10279000FE85F081FF872F85222309F08BCDF10183
:1027A0008681978162960FB6F894DEBF0FBECDBFCB
:1027B000DF91CF911F910F91FF90EF90DF90CF901D
:1027C000BF90AF909F908F907F906F905F904F9051
:1027D0003F902F9008950F931F93CF93DF93869F81
:1027E0008001879F100D969F100D1124C8010E9433
:1027F0000714EC01009729F0A80160E070E00E9446
:102800001115CE01DF91CF911F910F910895CF93B4
:10281000DF93AC01029710F442E050E020E030E09A
:10282000A091D102B091D202BD01F901109709F433
:102830004CC08D919C9111978417950731F14817E1
:10284000590738F42115310519F08217930708F458
:102850009C01FD01A281B381109759F72115310523
:10286000A1F1C901841B950B049708F4A901DB01B0
:10287000E0E0F0E0109749F18D919C91119782175B
:102880009307F9F44217530779F4ED018A819B818C
:10289000309719F09383828304C09093D20280937F
:1028A000D102CD0102964AC0241B350BFD01E20F77
:1028B000F31F41935193225030402D933C93CF010D
:1028C0003DC0FD01A281B381D5CF8091CF0290910F
:1028D000D002892B41F480919401909195019093BD
:1028E000D0028093CF02E0919201F0919301309752
:1028F00041F4EDB7FEB78091960190919701E81BE6
:10290000F90BA091CF02B091D0029F012A1B3B0B83
:102910002417350788F0CA0102962817390760F096
:10292000CD01840F951F02969093D0028093CF0221
:102930004D935D93CD0102C080E090E0DF91CF9197
:102940000895CF93DF93009709F454C0DC011297E8
:10295000ED011B821A828091D1029091D2020097E0
:1029600021F1FC0140E050E0EA17FB0718F1ED010E
:10297000FB83EA832D913C911197C20FD31FCE01A7
:1029800002968E179F0771F48A819B81280F391F49
:102990002E5F3F4F11963C932E9382819381FD01D0
:1029A000938382834115510559F4B093D202A093C9
:1029B000D10220C0AF010280F381E02D3097A1F653
:1029C000EA01BB83AA83CA01029628813981820F5A
:1029D000931F8A179B0771F48D919C911197280F73
:1029E000391F2E5F3F4F39832883FD0182819381F8
:1029F0009B838A83DF91CF910895FC01059000208D
:102A0000E9F7809590958E0F9F1F0895FC01059022
:102A1000615070400110D8F7809590958E0F9F1FE0
:102A20000895DC0140FF03C001C06D936D934250D7
:102A30005040D8F70895FC0161507040019001109A
:102A4000D8F7809590958E0F9F1F08950F931F9331
:102A5000CF93DF938C01EB018B81992781FF1CC001
:102A600082FF0DC02E813F818C819D8128173907FF
:102A700064F4E881F9810193F983E88306C0E8856D
:102A8000F985802F0995892B39F48E819F810196D4
:102A90009F838E83C80102C08FEF9FEFDF91CF919C
:102AA0001F910F910895A1E21A2EAA1BBB1BFD01D5
:102AB0000DC0AA1FBB1FEE1FFF1FA217B307E4071D
:102AC000F50720F0A21BB30BE40BF50B661F771F75
:102AD000881F991F1A9469F7609570958095909555
:0C2AE0009B01AC01BD01CF010895FFCFA8
:102AEC0001252E32643A252E32643A252E3264208A
:102AFC002D2000506F776572206F6E206F6C6425EF
:102B0C0064206E657725640D0A00576174657269DF
:102B1C006E67206F6C642564206E657725640D0AE2
:102B2C0000537461747573206F6C642564206E653A
:102B3C007725640D0A00736F6E6E65206461206EDC
:102B4C00657725640D0A00736F6E6E652077656777
:102B5C00206E657725640D0A0054696D6572206DD1
:102B6C006F64756C207374617274696E67202E2E9D
:102B7C002E0A0D00252E32643A252E32643A252E6B
:102B8C003264202D200055702070696E25640D0A6A
:102B9C0000446F776E2070696E25640D0A00526FC9
:102BAC006C616465205374617475732070696E2553
:102BBC0064206F6C642564206E657725640D0A00B3
:102BCC00526F6C61646520496E69742070696E2562
:102BDC00640A0D004175746F6D61746963207069CE
:102BEC006E2564206F6C642564206E657725640DFA
:102BFC000A004175746F6D206D6F646520636861A8
:102C0C006E6765206F6C642564206E657725640D96
:082C1C000A000000D3022000B1
:00000001FF
